{
  "_format": "hh-sol-artifact-1",
  "contractName": "BuyNFT",
  "sourceName": "contracts/BuyNFT.sol",
  "abi": [
    {
      "inputs": [
        {
          "internalType": "address",
          "name": "_tradeToken",
          "type": "address"
        },
        {
          "internalType": "address",
          "name": "_staking",
          "type": "address"
        }
      ],
      "stateMutability": "nonpayable",
      "type": "constructor"
    },
    {
      "anonymous": false,
      "inputs": [
        {
          "indexed": true,
          "internalType": "address",
          "name": "owner",
          "type": "address"
        },
        {
          "indexed": true,
          "internalType": "address",
          "name": "approved",
          "type": "address"
        },
        {
          "indexed": true,
          "internalType": "uint256",
          "name": "tokenId",
          "type": "uint256"
        }
      ],
      "name": "Approval",
      "type": "event"
    },
    {
      "anonymous": false,
      "inputs": [
        {
          "indexed": true,
          "internalType": "address",
          "name": "owner",
          "type": "address"
        },
        {
          "indexed": true,
          "internalType": "address",
          "name": "operator",
          "type": "address"
        },
        {
          "indexed": false,
          "internalType": "bool",
          "name": "approved",
          "type": "bool"
        }
      ],
      "name": "ApprovalForAll",
      "type": "event"
    },
    {
      "anonymous": false,
      "inputs": [
        {
          "indexed": false,
          "internalType": "address",
          "name": "buyer",
          "type": "address"
        },
        {
          "indexed": false,
          "internalType": "uint256",
          "name": "tokenId",
          "type": "uint256"
        }
      ],
      "name": "BuySuccess",
      "type": "event"
    },
    {
      "anonymous": false,
      "inputs": [
        {
          "indexed": true,
          "internalType": "address",
          "name": "previousOwner",
          "type": "address"
        },
        {
          "indexed": true,
          "internalType": "address",
          "name": "newOwner",
          "type": "address"
        }
      ],
      "name": "OwnershipTransferred",
      "type": "event"
    },
    {
      "anonymous": false,
      "inputs": [
        {
          "indexed": true,
          "internalType": "address",
          "name": "from",
          "type": "address"
        },
        {
          "indexed": true,
          "internalType": "address",
          "name": "to",
          "type": "address"
        },
        {
          "indexed": true,
          "internalType": "uint256",
          "name": "tokenId",
          "type": "uint256"
        }
      ],
      "name": "Transfer",
      "type": "event"
    },
    {
      "inputs": [
        {
          "internalType": "address",
          "name": "to",
          "type": "address"
        },
        {
          "internalType": "uint256",
          "name": "tokenId",
          "type": "uint256"
        }
      ],
      "name": "approve",
      "outputs": [],
      "stateMutability": "nonpayable",
      "type": "function"
    },
    {
      "inputs": [
        {
          "internalType": "address",
          "name": "owner",
          "type": "address"
        }
      ],
      "name": "balanceOf",
      "outputs": [
        {
          "internalType": "uint256",
          "name": "",
          "type": "uint256"
        }
      ],
      "stateMutability": "view",
      "type": "function"
    },
    {
      "inputs": [
        {
          "internalType": "string",
          "name": "_tokenURI",
          "type": "string"
        },
        {
          "internalType": "uint256",
          "name": "_tokenId",
          "type": "uint256"
        },
        {
          "internalType": "uint256",
          "name": "_price",
          "type": "uint256"
        },
        {
          "internalType": "address",
          "name": "_receiver",
          "type": "address"
        },
        {
          "internalType": "bytes",
          "name": "_signature",
          "type": "bytes"
        }
      ],
      "name": "buyNFT",
      "outputs": [
        {
          "internalType": "uint256",
          "name": "",
          "type": "uint256"
        }
      ],
      "stateMutability": "nonpayable",
      "type": "function"
    },
    {
      "inputs": [
        {
          "internalType": "uint256",
          "name": "tokenId",
          "type": "uint256"
        }
      ],
      "name": "getApproved",
      "outputs": [
        {
          "internalType": "address",
          "name": "",
          "type": "address"
        }
      ],
      "stateMutability": "view",
      "type": "function"
    },
    {
      "inputs": [],
      "name": "getStaking",
      "outputs": [
        {
          "internalType": "address",
          "name": "",
          "type": "address"
        }
      ],
      "stateMutability": "view",
      "type": "function"
    },
    {
      "inputs": [],
      "name": "getTradeToken",
      "outputs": [
        {
          "internalType": "address",
          "name": "",
          "type": "address"
        }
      ],
      "stateMutability": "view",
      "type": "function"
    },
    {
      "inputs": [
        {
          "internalType": "address",
          "name": "owner",
          "type": "address"
        },
        {
          "internalType": "address",
          "name": "operator",
          "type": "address"
        }
      ],
      "name": "isApprovedForAll",
      "outputs": [
        {
          "internalType": "bool",
          "name": "",
          "type": "bool"
        }
      ],
      "stateMutability": "view",
      "type": "function"
    },
    {
      "inputs": [],
      "name": "name",
      "outputs": [
        {
          "internalType": "string",
          "name": "",
          "type": "string"
        }
      ],
      "stateMutability": "view",
      "type": "function"
    },
    {
      "inputs": [],
      "name": "owner",
      "outputs": [
        {
          "internalType": "address",
          "name": "",
          "type": "address"
        }
      ],
      "stateMutability": "view",
      "type": "function"
    },
    {
      "inputs": [
        {
          "internalType": "uint256",
          "name": "tokenId",
          "type": "uint256"
        }
      ],
      "name": "ownerOf",
      "outputs": [
        {
          "internalType": "address",
          "name": "",
          "type": "address"
        }
      ],
      "stateMutability": "view",
      "type": "function"
    },
    {
      "inputs": [],
      "name": "renounceOwnership",
      "outputs": [],
      "stateMutability": "nonpayable",
      "type": "function"
    },
    {
      "inputs": [
        {
          "internalType": "address",
          "name": "from",
          "type": "address"
        },
        {
          "internalType": "address",
          "name": "to",
          "type": "address"
        },
        {
          "internalType": "uint256",
          "name": "tokenId",
          "type": "uint256"
        }
      ],
      "name": "safeTransferFrom",
      "outputs": [],
      "stateMutability": "nonpayable",
      "type": "function"
    },
    {
      "inputs": [
        {
          "internalType": "address",
          "name": "from",
          "type": "address"
        },
        {
          "internalType": "address",
          "name": "to",
          "type": "address"
        },
        {
          "internalType": "uint256",
          "name": "tokenId",
          "type": "uint256"
        },
        {
          "internalType": "bytes",
          "name": "_data",
          "type": "bytes"
        }
      ],
      "name": "safeTransferFrom",
      "outputs": [],
      "stateMutability": "nonpayable",
      "type": "function"
    },
    {
      "inputs": [
        {
          "internalType": "address",
          "name": "operator",
          "type": "address"
        },
        {
          "internalType": "bool",
          "name": "approved",
          "type": "bool"
        }
      ],
      "name": "setApprovalForAll",
      "outputs": [],
      "stateMutability": "nonpayable",
      "type": "function"
    },
    {
      "inputs": [
        {
          "internalType": "bytes4",
          "name": "interfaceId",
          "type": "bytes4"
        }
      ],
      "name": "supportsInterface",
      "outputs": [
        {
          "internalType": "bool",
          "name": "",
          "type": "bool"
        }
      ],
      "stateMutability": "view",
      "type": "function"
    },
    {
      "inputs": [],
      "name": "symbol",
      "outputs": [
        {
          "internalType": "string",
          "name": "",
          "type": "string"
        }
      ],
      "stateMutability": "view",
      "type": "function"
    },
    {
      "inputs": [
        {
          "internalType": "uint256",
          "name": "tokenId",
          "type": "uint256"
        }
      ],
      "name": "tokenURI",
      "outputs": [
        {
          "internalType": "string",
          "name": "",
          "type": "string"
        }
      ],
      "stateMutability": "view",
      "type": "function"
    },
    {
      "inputs": [
        {
          "internalType": "address",
          "name": "from",
          "type": "address"
        },
        {
          "internalType": "address",
          "name": "to",
          "type": "address"
        },
        {
          "internalType": "uint256",
          "name": "tokenId",
          "type": "uint256"
        }
      ],
      "name": "transferFrom",
      "outputs": [],
      "stateMutability": "nonpayable",
      "type": "function"
    },
    {
      "inputs": [
        {
          "internalType": "address",
          "name": "newOwner",
          "type": "address"
        }
      ],
      "name": "transferOwnership",
      "outputs": [],
      "stateMutability": "nonpayable",
      "type": "function"
    },
    {
      "inputs": [
        {
          "internalType": "string",
          "name": "_tokenURI",
          "type": "string"
        },
        {
          "internalType": "uint256",
          "name": "_tokenId",
          "type": "uint256"
        },
        {
          "internalType": "uint256",
          "name": "_price",
          "type": "uint256"
        },
        {
          "internalType": "address",
          "name": "_receiver",
          "type": "address"
        },
        {
          "internalType": "bytes",
          "name": "_signature",
          "type": "bytes"
        }
      ],
      "name": "verifySignature",
      "outputs": [
        {
          "internalType": "bool",
          "name": "",
          "type": "bool"
        }
      ],
      "stateMutability": "view",
      "type": "function"
    }
  ],
  "bytecode": "0x60806040523480156200001157600080fd5b506040516200438f3803806200438f83398181016040528101906200003791906200031e565b6040518060400160405280601081526020017f4d657461766572736520546f6b656e73000000000000000000000000000000008152506040518060400160405280600581526020017f44554e46540000000000000000000000000000000000000000000000000000008152508160009080519060200190620000bb92919062000257565b508060019080519060200190620000d492919062000257565b5050506001600781905550620000ff620000f36200018960201b60201c565b6200019160201b60201c565b81600960006101000a81548173ffffffffffffffffffffffffffffffffffffffff021916908373ffffffffffffffffffffffffffffffffffffffff16021790555080600a60006101000a81548173ffffffffffffffffffffffffffffffffffffffff021916908373ffffffffffffffffffffffffffffffffffffffff160217905550505062000412565b600033905090565b6000600860009054906101000a900473ffffffffffffffffffffffffffffffffffffffff16905081600860006101000a81548173ffffffffffffffffffffffffffffffffffffffff021916908373ffffffffffffffffffffffffffffffffffffffff1602179055508173ffffffffffffffffffffffffffffffffffffffff168173ffffffffffffffffffffffffffffffffffffffff167f8be0079c531659141344cd1fd0a4f28419497f9722a3daafe3b4186f6b6457e060405160405180910390a35050565b828054620002659062000393565b90600052602060002090601f016020900481019282620002895760008555620002d5565b82601f10620002a457805160ff1916838001178555620002d5565b82800160010185558215620002d5579182015b82811115620002d4578251825591602001919060010190620002b7565b5b509050620002e49190620002e8565b5090565b5b8082111562000303576000816000905550600101620002e9565b5090565b6000815190506200031881620003f8565b92915050565b600080604083850312156200033257600080fd5b6000620003428582860162000307565b9250506020620003558582860162000307565b9150509250929050565b60006200036c8262000373565b9050919050565b600073ffffffffffffffffffffffffffffffffffffffff82169050919050565b60006002820490506001821680620003ac57607f821691505b60208210811415620003c357620003c2620003c9565b5b50919050565b7f4e487b7100000000000000000000000000000000000000000000000000000000600052602260045260246000fd5b62000403816200035f565b81146200040f57600080fd5b50565b613f6d80620004226000396000f3fe608060405234801561001057600080fd5b506004361061012c5760003560e01c806370a08231116100ad578063a22cb46511610071578063a22cb46514610345578063b88d4fde14610361578063c87b56dd1461037d578063e985e9c5146103ad578063f2fde38b146103dd5761012c565b806370a08231146102b1578063715018a6146102e15780637b1391a6146102eb5780638da5cb5b1461030957806395d89b41146103275761012c565b806323b872dd116100f457806323b872dd146101fb57806325ff0a7514610217578063306cd3081461024757806342842e0e146102655780636352211e146102815761012c565b806301ffc9a71461013157806306fdde0314610161578063081812fc1461017f578063095ea7b3146101af57806316bb341d146101cb575b600080fd5b61014b600480360381019061014691906128b2565b6103f9565b6040516101589190613053565b60405180910390f35b6101696104db565b60405161017691906130b3565b60405180910390f35b610199600480360381019061019491906129ab565b61056d565b6040516101a69190612f63565b60405180910390f35b6101c960048036038101906101c4919061284d565b6105f2565b005b6101e560048036038101906101e09190612904565b61070a565b6040516101f29190613053565b60405180910390f35b61021560048036038101906102109190612747565b6107a0565b005b610231600480360381019061022c9190612904565b610800565b60405161023e91906133f5565b60405180910390f35b61024f6109e6565b60405161025c9190612f63565b60405180910390f35b61027f600480360381019061027a9190612747565b610a10565b005b61029b600480360381019061029691906129ab565b610a30565b6040516102a89190612f63565b60405180910390f35b6102cb60048036038101906102c691906126e2565b610ae2565b6040516102d891906133f5565b60405180910390f35b6102e9610b9a565b005b6102f3610c22565b6040516103009190612f63565b60405180910390f35b610311610c4c565b60405161031e9190612f63565b60405180910390f35b61032f610c76565b60405161033c91906130b3565b60405180910390f35b61035f600480360381019061035a9190612811565b610d08565b005b61037b60048036038101906103769190612796565b610d1e565b005b610397600480360381019061039291906129ab565b610d80565b6040516103a491906130b3565b60405180910390f35b6103c760048036038101906103c2919061270b565b610ed2565b6040516103d49190613053565b60405180910390f35b6103f760048036038101906103f291906126e2565b610f66565b005b60007f80ac58cd000000000000000000000000000000000000000000000000000000007bffffffffffffffffffffffffffffffffffffffffffffffffffffffff1916827bffffffffffffffffffffffffffffffffffffffffffffffffffffffff191614806104c457507f5b5e139f000000000000000000000000000000000000000000000000000000007bffffffffffffffffffffffffffffffffffffffffffffffffffffffff1916827bffffffffffffffffffffffffffffffffffffffffffffffffffffffff1916145b806104d457506104d38261105e565b5b9050919050565b6060600080546104ea90613662565b80601f016020809104026020016040519081016040528092919081815260200182805461051690613662565b80156105635780601f1061053857610100808354040283529160200191610563565b820191906000526020600020905b81548152906001019060200180831161054657829003601f168201915b5050505050905090565b6000610578826110c8565b6105b7576040517f08c379a00000000000000000000000000000000000000000000000000000000081526004016105ae90613315565b60405180910390fd5b6004600083815260200190815260200160002060009054906101000a900473ffffffffffffffffffffffffffffffffffffffff169050919050565b60006105fd82610a30565b90508073ffffffffffffffffffffffffffffffffffffffff168373ffffffffffffffffffffffffffffffffffffffff16141561066e576040517f08c379a000000000000000000000000000000000000000000000000000000000815260040161066590613395565b60405180910390fd5b8073ffffffffffffffffffffffffffffffffffffffff1661068d611134565b73ffffffffffffffffffffffffffffffffffffffff1614806106bc57506106bb816106b6611134565b610ed2565b5b6106fb576040517f08c379a00000000000000000000000000000000000000000000000000000000081526004016106f290613215565b60405180910390fd5b610705838361113c565b505050565b6000803387878787604051602001610726959493929190612ebe565b6040516020818303038152906040528051906020012090506000610749826111f5565b9050610753610c4c565b73ffffffffffffffffffffffffffffffffffffffff1661077c858361122590919063ffffffff16565b73ffffffffffffffffffffffffffffffffffffffff16149250505095945050505050565b6107b16107ab611134565b8261124c565b6107f0576040517f08c379a00000000000000000000000000000000000000000000000000000000081526004016107e7906133b5565b60405180910390fd5b6107fb83838361132a565b505050565b600060026007541415610848576040517f08c379a000000000000000000000000000000000000000000000000000000000815260040161083f906133d5565b60405180910390fd5b600260078190555061085d868686868661070a565b61089c576040517f08c379a000000000000000000000000000000000000000000000000000000000815260040161089390613295565b60405180910390fd5b6108a63385611591565b6108b03386611690565b6108ba858761186a565b6108e7600a60009054906101000a900473ffffffffffffffffffffffffffffffffffffffff166001610d08565b600960009054906101000a900473ffffffffffffffffffffffffffffffffffffffff1673ffffffffffffffffffffffffffffffffffffffff166323b872dd3385876040518463ffffffff1660e01b815260040161094693929190612fa7565b602060405180830381600087803b15801561096057600080fd5b505af1158015610974573d6000803e3d6000fd5b505050506040513d601f19601f820116820180604052508101906109989190612889565b507f4ebd789cb16bce0159457f60b59741a9ed5f2254bf2db8b726eb949de370e29b33866040516109ca92919061302a565b60405180910390a1849050600160078190555095945050505050565b6000600960009054906101000a900473ffffffffffffffffffffffffffffffffffffffff16905090565b610a2b83838360405180602001604052806000815250610d1e565b505050565b6000806002600084815260200190815260200160002060009054906101000a900473ffffffffffffffffffffffffffffffffffffffff169050600073ffffffffffffffffffffffffffffffffffffffff168173ffffffffffffffffffffffffffffffffffffffff161415610ad9576040517f08c379a0000000000000000000000000000000000000000000000000000000008152600401610ad090613255565b60405180910390fd5b80915050919050565b60008073ffffffffffffffffffffffffffffffffffffffff168273ffffffffffffffffffffffffffffffffffffffff161415610b53576040517f08c379a0000000000000000000000000000000000000000000000000000000008152600401610b4a90613235565b60405180910390fd5b600360008373ffffffffffffffffffffffffffffffffffffffff1673ffffffffffffffffffffffffffffffffffffffff168152602001908152602001600020549050919050565b610ba2611134565b73ffffffffffffffffffffffffffffffffffffffff16610bc0610c4c565b73ffffffffffffffffffffffffffffffffffffffff1614610c16576040517f08c379a0000000000000000000000000000000000000000000000000000000008152600401610c0d90613335565b60405180910390fd5b610c2060006118de565b565b6000600a60009054906101000a900473ffffffffffffffffffffffffffffffffffffffff16905090565b6000600860009054906101000a900473ffffffffffffffffffffffffffffffffffffffff16905090565b606060018054610c8590613662565b80601f0160208091040260200160405190810160405280929190818152602001828054610cb190613662565b8015610cfe5780601f10610cd357610100808354040283529160200191610cfe565b820191906000526020600020905b815481529060010190602001808311610ce157829003601f168201915b5050505050905090565b610d1a610d13611134565b83836119a4565b5050565b610d2f610d29611134565b8361124c565b610d6e576040517f08c379a0000000000000000000000000000000000000000000000000000000008152600401610d65906133b5565b60405180910390fd5b610d7a84848484611b11565b50505050565b6060610d8b826110c8565b610dca576040517f08c379a0000000000000000000000000000000000000000000000000000000008152600401610dc1906132f5565b60405180910390fd5b6000600660008481526020019081526020016000208054610dea90613662565b80601f0160208091040260200160405190810160405280929190818152602001828054610e1690613662565b8015610e635780601f10610e3857610100808354040283529160200191610e63565b820191906000526020600020905b815481529060010190602001808311610e4657829003601f168201915b505050505090506000610e74611b6d565b9050600081511415610e8a578192505050610ecd565b600082511115610ebf578082604051602001610ea7929190612f19565b60405160208183030381529060405292505050610ecd565b610ec884611b84565b925050505b919050565b6000600560008473ffffffffffffffffffffffffffffffffffffffff1673ffffffffffffffffffffffffffffffffffffffff16815260200190815260200160002060008373ffffffffffffffffffffffffffffffffffffffff1673ffffffffffffffffffffffffffffffffffffffff16815260200190815260200160002060009054906101000a900460ff16905092915050565b610f6e611134565b73ffffffffffffffffffffffffffffffffffffffff16610f8c610c4c565b73ffffffffffffffffffffffffffffffffffffffff1614610fe2576040517f08c379a0000000000000000000000000000000000000000000000000000000008152600401610fd990613335565b60405180910390fd5b600073ffffffffffffffffffffffffffffffffffffffff168173ffffffffffffffffffffffffffffffffffffffff161415611052576040517f08c379a000000000000000000000000000000000000000000000000000000000815260040161104990613135565b60405180910390fd5b61105b816118de565b50565b60007f01ffc9a7000000000000000000000000000000000000000000000000000000007bffffffffffffffffffffffffffffffffffffffffffffffffffffffff1916827bffffffffffffffffffffffffffffffffffffffffffffffffffffffff1916149050919050565b60008073ffffffffffffffffffffffffffffffffffffffff166002600084815260200190815260200160002060009054906101000a900473ffffffffffffffffffffffffffffffffffffffff1673ffffffffffffffffffffffffffffffffffffffff1614159050919050565b600033905090565b816004600083815260200190815260200160002060006101000a81548173ffffffffffffffffffffffffffffffffffffffff021916908373ffffffffffffffffffffffffffffffffffffffff160217905550808273ffffffffffffffffffffffffffffffffffffffff166111af83610a30565b73ffffffffffffffffffffffffffffffffffffffff167f8c5be1e5ebec7d5bd14f71427d1e84f3dd0314c0f7b2291e5b200ac8c7c3b92560405160405180910390a45050565b6000816040516020016112089190612f3d565b604051602081830303815290604052805190602001209050919050565b60008060006112348585611c2b565b9150915061124181611cae565b819250505092915050565b6000611257826110c8565b611296576040517f08c379a000000000000000000000000000000000000000000000000000000000815260040161128d906131f5565b60405180910390fd5b60006112a183610a30565b90508073ffffffffffffffffffffffffffffffffffffffff168473ffffffffffffffffffffffffffffffffffffffff16148061131057508373ffffffffffffffffffffffffffffffffffffffff166112f88461056d565b73ffffffffffffffffffffffffffffffffffffffff16145b8061132157506113208185610ed2565b5b91505092915050565b8273ffffffffffffffffffffffffffffffffffffffff1661134a82610a30565b73ffffffffffffffffffffffffffffffffffffffff16146113a0576040517f08c379a000000000000000000000000000000000000000000000000000000000815260040161139790613155565b60405180910390fd5b600073ffffffffffffffffffffffffffffffffffffffff168273ffffffffffffffffffffffffffffffffffffffff161415611410576040517f08c379a000000000000000000000000000000000000000000000000000000000815260040161140790613195565b60405180910390fd5b61141b838383611fff565b61142660008261113c565b6001600360008573ffffffffffffffffffffffffffffffffffffffff1673ffffffffffffffffffffffffffffffffffffffff16815260200190815260200160002060008282546114769190613561565b925050819055506001600360008473ffffffffffffffffffffffffffffffffffffffff1673ffffffffffffffffffffffffffffffffffffffff16815260200190815260200160002060008282546114cd91906134da565b92505081905550816002600083815260200190815260200160002060006101000a81548173ffffffffffffffffffffffffffffffffffffffff021916908373ffffffffffffffffffffffffffffffffffffffff160217905550808273ffffffffffffffffffffffffffffffffffffffff168473ffffffffffffffffffffffffffffffffffffffff167fddf252ad1be2c89b69c2b068fc378daa952ba7f163c4a11628f55a4df523b3ef60405160405180910390a461158c838383612004565b505050565b6000600960009054906101000a900473ffffffffffffffffffffffffffffffffffffffff16905060008173ffffffffffffffffffffffffffffffffffffffff1663dd62ed3e85306040518363ffffffff1660e01b81526004016115f5929190612f7e565b60206040518083038186803b15801561160d57600080fd5b505afa158015611621573d6000803e3d6000fd5b505050506040513d601f19601f8201168201806040525081019061164591906129d4565b90508281101561168a576040517f08c379a000000000000000000000000000000000000000000000000000000000815260040161168190613375565b60405180910390fd5b50505050565b600073ffffffffffffffffffffffffffffffffffffffff168273ffffffffffffffffffffffffffffffffffffffff161415611700576040517f08c379a00000000000000000000000000000000000000000000000000000000081526004016116f7906132d5565b60405180910390fd5b611709816110c8565b15611749576040517f08c379a000000000000000000000000000000000000000000000000000000000815260040161174090613175565b60405180910390fd5b61175560008383611fff565b6001600360008473ffffffffffffffffffffffffffffffffffffffff1673ffffffffffffffffffffffffffffffffffffffff16815260200190815260200160002060008282546117a591906134da565b92505081905550816002600083815260200190815260200160002060006101000a81548173ffffffffffffffffffffffffffffffffffffffff021916908373ffffffffffffffffffffffffffffffffffffffff160217905550808273ffffffffffffffffffffffffffffffffffffffff16600073ffffffffffffffffffffffffffffffffffffffff167fddf252ad1be2c89b69c2b068fc378daa952ba7f163c4a11628f55a4df523b3ef60405160405180910390a461186660008383612004565b5050565b611873826110c8565b6118b2576040517f08c379a00000000000000000000000000000000000000000000000000000000081526004016118a990613275565b60405180910390fd5b806006600084815260200190815260200160002090805190602001906118d99291906124dc565b505050565b6000600860009054906101000a900473ffffffffffffffffffffffffffffffffffffffff16905081600860006101000a81548173ffffffffffffffffffffffffffffffffffffffff021916908373ffffffffffffffffffffffffffffffffffffffff1602179055508173ffffffffffffffffffffffffffffffffffffffff168173ffffffffffffffffffffffffffffffffffffffff167f8be0079c531659141344cd1fd0a4f28419497f9722a3daafe3b4186f6b6457e060405160405180910390a35050565b8173ffffffffffffffffffffffffffffffffffffffff168373ffffffffffffffffffffffffffffffffffffffff161415611a13576040517f08c379a0000000000000000000000000000000000000000000000000000000008152600401611a0a906131b5565b60405180910390fd5b80600560008573ffffffffffffffffffffffffffffffffffffffff1673ffffffffffffffffffffffffffffffffffffffff16815260200190815260200160002060008473ffffffffffffffffffffffffffffffffffffffff1673ffffffffffffffffffffffffffffffffffffffff16815260200190815260200160002060006101000a81548160ff0219169083151502179055508173ffffffffffffffffffffffffffffffffffffffff168373ffffffffffffffffffffffffffffffffffffffff167f17307eab39ab6107e8899845ad3d59bd9653f200f220920489ca2b5937696c3183604051611b049190613053565b60405180910390a3505050565b611b1c84848461132a565b611b2884848484612009565b611b67576040517f08c379a0000000000000000000000000000000000000000000000000000000008152600401611b5e90613115565b60405180910390fd5b50505050565b606060405180602001604052806000815250905090565b6060611b8f826110c8565b611bce576040517f08c379a0000000000000000000000000000000000000000000000000000000008152600401611bc590613355565b60405180910390fd5b6000611bd8611b6d565b90506000815111611bf85760405180602001604052806000815250611c23565b80611c02846121a0565b604051602001611c13929190612f19565b6040516020818303038152906040525b915050919050565b600080604183511415611c6d5760008060006020860151925060408601519150606086015160001a9050611c618782858561234d565b94509450505050611ca7565b604083511415611c9e576000806020850151915060408501519050611c9386838361245a565b935093505050611ca7565b60006002915091505b9250929050565b60006004811115611ce8577f4e487b7100000000000000000000000000000000000000000000000000000000600052602160045260246000fd5b816004811115611d21577f4e487b7100000000000000000000000000000000000000000000000000000000600052602160045260246000fd5b1415611d2c57611ffc565b60016004811115611d66577f4e487b7100000000000000000000000000000000000000000000000000000000600052602160045260246000fd5b816004811115611d9f577f4e487b7100000000000000000000000000000000000000000000000000000000600052602160045260246000fd5b1415611de0576040517f08c379a0000000000000000000000000000000000000000000000000000000008152600401611dd7906130d5565b60405180910390fd5b60026004811115611e1a577f4e487b7100000000000000000000000000000000000000000000000000000000600052602160045260246000fd5b816004811115611e53577f4e487b7100000000000000000000000000000000000000000000000000000000600052602160045260246000fd5b1415611e94576040517f08c379a0000000000000000000000000000000000000000000000000000000008152600401611e8b906130f5565b60405180910390fd5b60036004811115611ece577f4e487b7100000000000000000000000000000000000000000000000000000000600052602160045260246000fd5b816004811115611f07577f4e487b7100000000000000000000000000000000000000000000000000000000600052602160045260246000fd5b1415611f48576040517f08c379a0000000000000000000000000000000000000000000000000000000008152600401611f3f906131d5565b60405180910390fd5b600480811115611f81577f4e487b7100000000000000000000000000000000000000000000000000000000600052602160045260246000fd5b816004811115611fba577f4e487b7100000000000000000000000000000000000000000000000000000000600052602160045260246000fd5b1415611ffb576040517f08c379a0000000000000000000000000000000000000000000000000000000008152600401611ff2906132b5565b60405180910390fd5b5b50565b505050565b505050565b600061202a8473ffffffffffffffffffffffffffffffffffffffff166124b9565b15612193578373ffffffffffffffffffffffffffffffffffffffff1663150b7a02612053611134565b8786866040518563ffffffff1660e01b81526004016120759493929190612fde565b602060405180830381600087803b15801561208f57600080fd5b505af19250505080156120c057506040513d601f19601f820116820180604052508101906120bd91906128db565b60015b612143573d80600081146120f0576040519150601f19603f3d011682016040523d82523d6000602084013e6120f5565b606091505b5060008151141561213b576040517f08c379a000000000000000000000000000000000000000000000000000000000815260040161213290613115565b60405180910390fd5b805181602001fd5b63150b7a0260e01b7bffffffffffffffffffffffffffffffffffffffffffffffffffffffff1916817bffffffffffffffffffffffffffffffffffffffffffffffffffffffff191614915050612198565b600190505b949350505050565b606060008214156121e8576040518060400160405280600181526020017f30000000000000000000000000000000000000000000000000000000000000008152509050612348565b600082905060005b6000821461221a578080612203906136c5565b915050600a826122139190613530565b91506121f0565b60008167ffffffffffffffff81111561225c577f4e487b7100000000000000000000000000000000000000000000000000000000600052604160045260246000fd5b6040519080825280601f01601f19166020018201604052801561228e5781602001600182028036833780820191505090505b5090505b60008514612341576001826122a79190613561565b9150600a856122b69190613746565b60306122c291906134da565b60f81b8183815181106122fe577f4e487b7100000000000000000000000000000000000000000000000000000000600052603260045260246000fd5b60200101907effffffffffffffffffffffffffffffffffffffffffffffffffffffffffffff1916908160001a905350600a8561233a9190613530565b9450612292565b8093505050505b919050565b6000807f7fffffffffffffffffffffffffffffff5d576e7357a4501ddfe92f46681b20a08360001c1115612388576000600391509150612451565b601b8560ff16141580156123a05750601c8560ff1614155b156123b2576000600491509150612451565b6000600187878787604051600081526020016040526040516123d7949392919061306e565b6020604051602081039080840390855afa1580156123f9573d6000803e3d6000fd5b505050602060405103519050600073ffffffffffffffffffffffffffffffffffffffff168173ffffffffffffffffffffffffffffffffffffffff16141561244857600060019250925050612451565b80600092509250505b94509492505050565b60008060007f7fffffffffffffffffffffffffffffffffffffffffffffffffffffffffffffff60001b841690506000601b60ff8660001c901c61249d91906134da565b90506124ab8782888561234d565b935093505050935093915050565b6000808273ffffffffffffffffffffffffffffffffffffffff163b119050919050565b8280546124e890613662565b90600052602060002090601f01602090048101928261250a5760008555612551565b82601f1061252357805160ff1916838001178555612551565b82800160010185558215612551579182015b82811115612550578251825591602001919060010190612535565b5b50905061255e9190612562565b5090565b5b8082111561257b576000816000905550600101612563565b5090565b600061259261258d84613435565b613410565b9050828152602081018484840111156125aa57600080fd5b6125b5848285613620565b509392505050565b60006125d06125cb84613466565b613410565b9050828152602081018484840111156125e857600080fd5b6125f3848285613620565b509392505050565b60008135905061260a81613edb565b92915050565b60008135905061261f81613ef2565b92915050565b60008151905061263481613ef2565b92915050565b60008135905061264981613f09565b92915050565b60008151905061265e81613f09565b92915050565b600082601f83011261267557600080fd5b813561268584826020860161257f565b91505092915050565b600082601f83011261269f57600080fd5b81356126af8482602086016125bd565b91505092915050565b6000813590506126c781613f20565b92915050565b6000815190506126dc81613f20565b92915050565b6000602082840312156126f457600080fd5b6000612702848285016125fb565b91505092915050565b6000806040838503121561271e57600080fd5b600061272c858286016125fb565b925050602061273d858286016125fb565b9150509250929050565b60008060006060848603121561275c57600080fd5b600061276a868287016125fb565b935050602061277b868287016125fb565b925050604061278c868287016126b8565b9150509250925092565b600080600080608085870312156127ac57600080fd5b60006127ba878288016125fb565b94505060206127cb878288016125fb565b93505060406127dc878288016126b8565b925050606085013567ffffffffffffffff8111156127f957600080fd5b61280587828801612664565b91505092959194509250565b6000806040838503121561282457600080fd5b6000612832858286016125fb565b925050602061284385828601612610565b9150509250929050565b6000806040838503121561286057600080fd5b600061286e858286016125fb565b925050602061287f858286016126b8565b9150509250929050565b60006020828403121561289b57600080fd5b60006128a984828501612625565b91505092915050565b6000602082840312156128c457600080fd5b60006128d28482850161263a565b91505092915050565b6000602082840312156128ed57600080fd5b60006128fb8482850161264f565b91505092915050565b600080600080600060a0868803121561291c57600080fd5b600086013567ffffffffffffffff81111561293657600080fd5b6129428882890161268e565b9550506020612953888289016126b8565b9450506040612964888289016126b8565b9350506060612975888289016125fb565b925050608086013567ffffffffffffffff81111561299257600080fd5b61299e88828901612664565b9150509295509295909350565b6000602082840312156129bd57600080fd5b60006129cb848285016126b8565b91505092915050565b6000602082840312156129e657600080fd5b60006129f4848285016126cd565b91505092915050565b612a0681613595565b82525050565b612a1d612a1882613595565b61370e565b82525050565b612a2c816135a7565b82525050565b612a3b816135b3565b82525050565b612a52612a4d826135b3565b613720565b82525050565b6000612a6382613497565b612a6d81856134ad565b9350612a7d81856020860161362f565b612a8681613833565b840191505092915050565b6000612a9c826134a2565b612aa681856134be565b9350612ab681856020860161362f565b612abf81613833565b840191505092915050565b6000612ad5826134a2565b612adf81856134cf565b9350612aef81856020860161362f565b80840191505092915050565b6000612b086018836134be565b9150612b1382613851565b602082019050919050565b6000612b2b601f836134be565b9150612b368261387a565b602082019050919050565b6000612b4e601c836134cf565b9150612b59826138a3565b601c82019050919050565b6000612b716032836134be565b9150612b7c826138cc565b604082019050919050565b6000612b946026836134be565b9150612b9f8261391b565b604082019050919050565b6000612bb76025836134be565b9150612bc28261396a565b604082019050919050565b6000612bda601c836134be565b9150612be5826139b9565b602082019050919050565b6000612bfd6024836134be565b9150612c08826139e2565b604082019050919050565b6000612c206019836134be565b9150612c2b82613a31565b602082019050919050565b6000612c436022836134be565b9150612c4e82613a5a565b604082019050919050565b6000612c66602c836134be565b9150612c7182613aa9565b604082019050919050565b6000612c896038836134be565b9150612c9482613af8565b604082019050919050565b6000612cac602a836134be565b9150612cb782613b47565b604082019050919050565b6000612ccf6029836134be565b9150612cda82613b96565b604082019050919050565b6000612cf2602e836134be565b9150612cfd82613be5565b604082019050919050565b6000612d156019836134be565b9150612d2082613c34565b602082019050919050565b6000612d386022836134be565b9150612d4382613c5d565b604082019050919050565b6000612d5b6020836134be565b9150612d6682613cac565b602082019050919050565b6000612d7e6031836134be565b9150612d8982613cd5565b604082019050919050565b6000612da1602c836134be565b9150612dac82613d24565b604082019050919050565b6000612dc46020836134be565b9150612dcf82613d73565b602082019050919050565b6000612de7602f836134be565b9150612df282613d9c565b604082019050919050565b6000612e0a601a836134be565b9150612e1582613deb565b602082019050919050565b6000612e2d6021836134be565b9150612e3882613e14565b604082019050919050565b6000612e506031836134be565b9150612e5b82613e63565b604082019050919050565b6000612e73601f836134be565b9150612e7e82613eb2565b602082019050919050565b612e9281613609565b82525050565b612ea9612ea482613609565b61373c565b82525050565b612eb881613613565b82525050565b6000612eca8288612a0c565b601482019150612eda8287612aca565b9150612ee68286612e98565b602082019150612ef68285612e98565b602082019150612f068284612a0c565b6014820191508190509695505050505050565b6000612f258285612aca565b9150612f318284612aca565b91508190509392505050565b6000612f4882612b41565b9150612f548284612a41565b60208201915081905092915050565b6000602082019050612f7860008301846129fd565b92915050565b6000604082019050612f9360008301856129fd565b612fa060208301846129fd565b9392505050565b6000606082019050612fbc60008301866129fd565b612fc960208301856129fd565b612fd66040830184612e89565b949350505050565b6000608082019050612ff360008301876129fd565b61300060208301866129fd565b61300d6040830185612e89565b818103606083015261301f8184612a58565b905095945050505050565b600060408201905061303f60008301856129fd565b61304c6020830184612e89565b9392505050565b60006020820190506130686000830184612a23565b92915050565b60006080820190506130836000830187612a32565b6130906020830186612eaf565b61309d6040830185612a32565b6130aa6060830184612a32565b95945050505050565b600060208201905081810360008301526130cd8184612a91565b905092915050565b600060208201905081810360008301526130ee81612afb565b9050919050565b6000602082019050818103600083015261310e81612b1e565b9050919050565b6000602082019050818103600083015261312e81612b64565b9050919050565b6000602082019050818103600083015261314e81612b87565b9050919050565b6000602082019050818103600083015261316e81612baa565b9050919050565b6000602082019050818103600083015261318e81612bcd565b9050919050565b600060208201905081810360008301526131ae81612bf0565b9050919050565b600060208201905081810360008301526131ce81612c13565b9050919050565b600060208201905081810360008301526131ee81612c36565b9050919050565b6000602082019050818103600083015261320e81612c59565b9050919050565b6000602082019050818103600083015261322e81612c7c565b9050919050565b6000602082019050818103600083015261324e81612c9f565b9050919050565b6000602082019050818103600083015261326e81612cc2565b9050919050565b6000602082019050818103600083015261328e81612ce5565b9050919050565b600060208201905081810360008301526132ae81612d08565b9050919050565b600060208201905081810360008301526132ce81612d2b565b9050919050565b600060208201905081810360008301526132ee81612d4e565b9050919050565b6000602082019050818103600083015261330e81612d71565b9050919050565b6000602082019050818103600083015261332e81612d94565b9050919050565b6000602082019050818103600083015261334e81612db7565b9050919050565b6000602082019050818103600083015261336e81612dda565b9050919050565b6000602082019050818103600083015261338e81612dfd565b9050919050565b600060208201905081810360008301526133ae81612e20565b9050919050565b600060208201905081810360008301526133ce81612e43565b9050919050565b600060208201905081810360008301526133ee81612e66565b9050919050565b600060208201905061340a6000830184612e89565b92915050565b600061341a61342b565b90506134268282613694565b919050565b6000604051905090565b600067ffffffffffffffff8211156134505761344f613804565b5b61345982613833565b9050602081019050919050565b600067ffffffffffffffff82111561348157613480613804565b5b61348a82613833565b9050602081019050919050565b600081519050919050565b600081519050919050565b600082825260208201905092915050565b600082825260208201905092915050565b600081905092915050565b60006134e582613609565b91506134f083613609565b9250827fffffffffffffffffffffffffffffffffffffffffffffffffffffffffffffffff0382111561352557613524613777565b5b828201905092915050565b600061353b82613609565b915061354683613609565b925082613556576135556137a6565b5b828204905092915050565b600061356c82613609565b915061357783613609565b92508282101561358a57613589613777565b5b828203905092915050565b60006135a0826135e9565b9050919050565b60008115159050919050565b6000819050919050565b60007fffffffff0000000000000000000000000000000000000000000000000000000082169050919050565b600073ffffffffffffffffffffffffffffffffffffffff82169050919050565b6000819050919050565b600060ff82169050919050565b82818337600083830152505050565b60005b8381101561364d578082015181840152602081019050613632565b8381111561365c576000848401525b50505050565b6000600282049050600182168061367a57607f821691505b6020821081141561368e5761368d6137d5565b5b50919050565b61369d82613833565b810181811067ffffffffffffffff821117156136bc576136bb613804565b5b80604052505050565b60006136d082613609565b91507fffffffffffffffffffffffffffffffffffffffffffffffffffffffffffffffff82141561370357613702613777565b5b600182019050919050565b60006137198261372a565b9050919050565b6000819050919050565b600061373582613844565b9050919050565b6000819050919050565b600061375182613609565b915061375c83613609565b92508261376c5761376b6137a6565b5b828206905092915050565b7f4e487b7100000000000000000000000000000000000000000000000000000000600052601160045260246000fd5b7f4e487b7100000000000000000000000000000000000000000000000000000000600052601260045260246000fd5b7f4e487b7100000000000000000000000000000000000000000000000000000000600052602260045260246000fd5b7f4e487b7100000000000000000000000000000000000000000000000000000000600052604160045260246000fd5b6000601f19601f8301169050919050565b60008160601b9050919050565b7f45434453413a20696e76616c6964207369676e61747572650000000000000000600082015250565b7f45434453413a20696e76616c6964207369676e6174757265206c656e67746800600082015250565b7f19457468657265756d205369676e6564204d6573736167653a0a333200000000600082015250565b7f4552433732313a207472616e7366657220746f206e6f6e20455243373231526560008201527f63656976657220696d706c656d656e7465720000000000000000000000000000602082015250565b7f4f776e61626c653a206e6577206f776e657220697320746865207a65726f206160008201527f6464726573730000000000000000000000000000000000000000000000000000602082015250565b7f4552433732313a207472616e736665722066726f6d20696e636f72726563742060008201527f6f776e6572000000000000000000000000000000000000000000000000000000602082015250565b7f4552433732313a20746f6b656e20616c7265616479206d696e74656400000000600082015250565b7f4552433732313a207472616e7366657220746f20746865207a65726f2061646460008201527f7265737300000000000000000000000000000000000000000000000000000000602082015250565b7f4552433732313a20617070726f766520746f2063616c6c657200000000000000600082015250565b7f45434453413a20696e76616c6964207369676e6174757265202773272076616c60008201527f7565000000000000000000000000000000000000000000000000000000000000602082015250565b7f4552433732313a206f70657261746f7220717565727920666f72206e6f6e657860008201527f697374656e7420746f6b656e0000000000000000000000000000000000000000602082015250565b7f4552433732313a20617070726f76652063616c6c6572206973206e6f74206f7760008201527f6e6572206e6f7220617070726f76656420666f7220616c6c0000000000000000602082015250565b7f4552433732313a2062616c616e636520717565727920666f7220746865207a6560008201527f726f206164647265737300000000000000000000000000000000000000000000602082015250565b7f4552433732313a206f776e657220717565727920666f72206e6f6e657869737460008201527f656e7420746f6b656e0000000000000000000000000000000000000000000000602082015250565b7f45524337323155524953746f726167653a2055524920736574206f66206e6f6e60008201527f6578697374656e7420746f6b656e000000000000000000000000000000000000602082015250565b7f4275794e46543a3a494e56414c49445f5349474e415455524500000000000000600082015250565b7f45434453413a20696e76616c6964207369676e6174757265202776272076616c60008201527f7565000000000000000000000000000000000000000000000000000000000000602082015250565b7f4552433732313a206d696e7420746f20746865207a65726f2061646472657373600082015250565b7f45524337323155524953746f726167653a2055524920717565727920666f722060008201527f6e6f6e6578697374656e7420746f6b656e000000000000000000000000000000602082015250565b7f4552433732313a20617070726f76656420717565727920666f72206e6f6e657860008201527f697374656e7420746f6b656e0000000000000000000000000000000000000000602082015250565b7f4f776e61626c653a2063616c6c6572206973206e6f7420746865206f776e6572600082015250565b7f4552433732314d657461646174613a2055524920717565727920666f72206e6f60008201527f6e6578697374656e7420746f6b656e0000000000000000000000000000000000602082015250565b7f4275794e46543a3a544f4b454e5f4e4f545f415050524f564544000000000000600082015250565b7f4552433732313a20617070726f76616c20746f2063757272656e74206f776e6560008201527f7200000000000000000000000000000000000000000000000000000000000000602082015250565b7f4552433732313a207472616e736665722063616c6c6572206973206e6f74206f60008201527f776e6572206e6f7220617070726f766564000000000000000000000000000000602082015250565b7f5265656e7472616e637947756172643a207265656e7472616e742063616c6c00600082015250565b613ee481613595565b8114613eef57600080fd5b50565b613efb816135a7565b8114613f0657600080fd5b50565b613f12816135bd565b8114613f1d57600080fd5b50565b613f2981613609565b8114613f3457600080fd5b5056fea2646970667358221220a4fc90552e7dd7cfa59b17096628c2ab8fa274cf85b1eba05f437525d1d5108364736f6c63430008040033",
  "linkReferences": {},
  "deployedLinkReferences": {}
}