{
  "_format": "hh-sol-artifact-1",
  "contractName": "BuyNFT",
  "sourceName": "contracts/BuyNFT.sol",
  "abi": [
    {
      "inputs": [
        {
          "internalType": "address",
          "name": "_tradeToken",
          "type": "address"
        },
        {
          "internalType": "address",
          "name": "_staking",
          "type": "address"
        }
      ],
      "stateMutability": "nonpayable",
      "type": "constructor"
    },
    {
      "anonymous": false,
      "inputs": [
        {
          "indexed": true,
          "internalType": "address",
          "name": "owner",
          "type": "address"
        },
        {
          "indexed": true,
          "internalType": "address",
          "name": "approved",
          "type": "address"
        },
        {
          "indexed": true,
          "internalType": "uint256",
          "name": "tokenId",
          "type": "uint256"
        }
      ],
      "name": "Approval",
      "type": "event"
    },
    {
      "anonymous": false,
      "inputs": [
        {
          "indexed": true,
          "internalType": "address",
          "name": "owner",
          "type": "address"
        },
        {
          "indexed": true,
          "internalType": "address",
          "name": "operator",
          "type": "address"
        },
        {
          "indexed": false,
          "internalType": "bool",
          "name": "approved",
          "type": "bool"
        }
      ],
      "name": "ApprovalForAll",
      "type": "event"
    },
    {
      "anonymous": false,
      "inputs": [
        {
          "indexed": false,
          "internalType": "address",
          "name": "buyer",
          "type": "address"
        },
        {
          "indexed": false,
          "internalType": "uint256",
          "name": "tokenId",
          "type": "uint256"
        },
        {
          "indexed": false,
          "internalType": "string",
          "name": "tokenURI",
          "type": "string"
        }
      ],
      "name": "BuySuccess",
      "type": "event"
    },
    {
      "anonymous": false,
      "inputs": [
        {
          "indexed": true,
          "internalType": "address",
          "name": "previousOwner",
          "type": "address"
        },
        {
          "indexed": true,
          "internalType": "address",
          "name": "newOwner",
          "type": "address"
        }
      ],
      "name": "OwnershipTransferred",
      "type": "event"
    },
    {
      "anonymous": false,
      "inputs": [
        {
          "indexed": true,
          "internalType": "address",
          "name": "from",
          "type": "address"
        },
        {
          "indexed": true,
          "internalType": "address",
          "name": "to",
          "type": "address"
        },
        {
          "indexed": true,
          "internalType": "uint256",
          "name": "tokenId",
          "type": "uint256"
        }
      ],
      "name": "Transfer",
      "type": "event"
    },
    {
      "inputs": [
        {
          "internalType": "address",
          "name": "to",
          "type": "address"
        },
        {
          "internalType": "uint256",
          "name": "tokenId",
          "type": "uint256"
        }
      ],
      "name": "approve",
      "outputs": [],
      "stateMutability": "nonpayable",
      "type": "function"
    },
    {
      "inputs": [
        {
          "internalType": "address",
          "name": "owner",
          "type": "address"
        }
      ],
      "name": "balanceOf",
      "outputs": [
        {
          "internalType": "uint256",
          "name": "",
          "type": "uint256"
        }
      ],
      "stateMutability": "view",
      "type": "function"
    },
    {
      "inputs": [
        {
          "internalType": "string",
          "name": "_tokenURI",
          "type": "string"
        },
        {
          "internalType": "uint256",
          "name": "_price",
          "type": "uint256"
        },
        {
          "internalType": "address",
          "name": "_receiver",
          "type": "address"
        },
        {
          "internalType": "bytes",
          "name": "_signature",
          "type": "bytes"
        }
      ],
      "name": "buyNFT",
      "outputs": [
        {
          "internalType": "uint256",
          "name": "",
          "type": "uint256"
        }
      ],
      "stateMutability": "nonpayable",
      "type": "function"
    },
    {
      "inputs": [
        {
          "internalType": "uint256",
          "name": "tokenId",
          "type": "uint256"
        }
      ],
      "name": "getApproved",
      "outputs": [
        {
          "internalType": "address",
          "name": "",
          "type": "address"
        }
      ],
      "stateMutability": "view",
      "type": "function"
    },
    {
      "inputs": [],
      "name": "getStaking",
      "outputs": [
        {
          "internalType": "address",
          "name": "",
          "type": "address"
        }
      ],
      "stateMutability": "view",
      "type": "function"
    },
    {
      "inputs": [],
      "name": "getTradeToken",
      "outputs": [
        {
          "internalType": "address",
          "name": "",
          "type": "address"
        }
      ],
      "stateMutability": "view",
      "type": "function"
    },
    {
      "inputs": [
        {
          "internalType": "address",
          "name": "owner",
          "type": "address"
        },
        {
          "internalType": "address",
          "name": "operator",
          "type": "address"
        }
      ],
      "name": "isApprovedForAll",
      "outputs": [
        {
          "internalType": "bool",
          "name": "",
          "type": "bool"
        }
      ],
      "stateMutability": "view",
      "type": "function"
    },
    {
      "inputs": [],
      "name": "name",
      "outputs": [
        {
          "internalType": "string",
          "name": "",
          "type": "string"
        }
      ],
      "stateMutability": "view",
      "type": "function"
    },
    {
      "inputs": [],
      "name": "owner",
      "outputs": [
        {
          "internalType": "address",
          "name": "",
          "type": "address"
        }
      ],
      "stateMutability": "view",
      "type": "function"
    },
    {
      "inputs": [
        {
          "internalType": "uint256",
          "name": "tokenId",
          "type": "uint256"
        }
      ],
      "name": "ownerOf",
      "outputs": [
        {
          "internalType": "address",
          "name": "",
          "type": "address"
        }
      ],
      "stateMutability": "view",
      "type": "function"
    },
    {
      "inputs": [],
      "name": "renounceOwnership",
      "outputs": [],
      "stateMutability": "nonpayable",
      "type": "function"
    },
    {
      "inputs": [
        {
          "internalType": "address",
          "name": "from",
          "type": "address"
        },
        {
          "internalType": "address",
          "name": "to",
          "type": "address"
        },
        {
          "internalType": "uint256",
          "name": "tokenId",
          "type": "uint256"
        }
      ],
      "name": "safeTransferFrom",
      "outputs": [],
      "stateMutability": "nonpayable",
      "type": "function"
    },
    {
      "inputs": [
        {
          "internalType": "address",
          "name": "from",
          "type": "address"
        },
        {
          "internalType": "address",
          "name": "to",
          "type": "address"
        },
        {
          "internalType": "uint256",
          "name": "tokenId",
          "type": "uint256"
        },
        {
          "internalType": "bytes",
          "name": "_data",
          "type": "bytes"
        }
      ],
      "name": "safeTransferFrom",
      "outputs": [],
      "stateMutability": "nonpayable",
      "type": "function"
    },
    {
      "inputs": [
        {
          "internalType": "address",
          "name": "operator",
          "type": "address"
        },
        {
          "internalType": "bool",
          "name": "approved",
          "type": "bool"
        }
      ],
      "name": "setApprovalForAll",
      "outputs": [],
      "stateMutability": "nonpayable",
      "type": "function"
    },
    {
      "inputs": [
        {
          "internalType": "bytes4",
          "name": "interfaceId",
          "type": "bytes4"
        }
      ],
      "name": "supportsInterface",
      "outputs": [
        {
          "internalType": "bool",
          "name": "",
          "type": "bool"
        }
      ],
      "stateMutability": "view",
      "type": "function"
    },
    {
      "inputs": [],
      "name": "symbol",
      "outputs": [
        {
          "internalType": "string",
          "name": "",
          "type": "string"
        }
      ],
      "stateMutability": "view",
      "type": "function"
    },
    {
      "inputs": [
        {
          "internalType": "uint256",
          "name": "tokenId",
          "type": "uint256"
        }
      ],
      "name": "tokenURI",
      "outputs": [
        {
          "internalType": "string",
          "name": "",
          "type": "string"
        }
      ],
      "stateMutability": "view",
      "type": "function"
    },
    {
      "inputs": [
        {
          "internalType": "address",
          "name": "from",
          "type": "address"
        },
        {
          "internalType": "address",
          "name": "to",
          "type": "address"
        },
        {
          "internalType": "uint256",
          "name": "tokenId",
          "type": "uint256"
        }
      ],
      "name": "transferFrom",
      "outputs": [],
      "stateMutability": "nonpayable",
      "type": "function"
    },
    {
      "inputs": [
        {
          "internalType": "address",
          "name": "newOwner",
          "type": "address"
        }
      ],
      "name": "transferOwnership",
      "outputs": [],
      "stateMutability": "nonpayable",
      "type": "function"
    },
    {
      "inputs": [
        {
          "internalType": "string",
          "name": "_tokenURI",
          "type": "string"
        },
        {
          "internalType": "uint256",
          "name": "_price",
          "type": "uint256"
        },
        {
          "internalType": "address",
          "name": "_receiver",
          "type": "address"
        },
        {
          "internalType": "bytes",
          "name": "_signature",
          "type": "bytes"
        }
      ],
      "name": "verifySignature",
      "outputs": [
        {
          "internalType": "bool",
          "name": "",
          "type": "bool"
        }
      ],
      "stateMutability": "view",
      "type": "function"
    }
  ],
  "bytecode": "0x60806040523480156200001157600080fd5b50604051620043b9380380620043b983398181016040528101906200003791906200031e565b6040518060400160405280601081526020017f4d657461766572736520546f6b656e73000000000000000000000000000000008152506040518060400160405280600581526020017f44554e46540000000000000000000000000000000000000000000000000000008152508160009080519060200190620000bb92919062000257565b508060019080519060200190620000d492919062000257565b5050506001600781905550620000ff620000f36200018960201b60201c565b6200019160201b60201c565b81600a60006101000a81548173ffffffffffffffffffffffffffffffffffffffff021916908373ffffffffffffffffffffffffffffffffffffffff16021790555080600b60006101000a81548173ffffffffffffffffffffffffffffffffffffffff021916908373ffffffffffffffffffffffffffffffffffffffff160217905550505062000412565b600033905090565b6000600860009054906101000a900473ffffffffffffffffffffffffffffffffffffffff16905081600860006101000a81548173ffffffffffffffffffffffffffffffffffffffff021916908373ffffffffffffffffffffffffffffffffffffffff1602179055508173ffffffffffffffffffffffffffffffffffffffff168173ffffffffffffffffffffffffffffffffffffffff167f8be0079c531659141344cd1fd0a4f28419497f9722a3daafe3b4186f6b6457e060405160405180910390a35050565b828054620002659062000393565b90600052602060002090601f016020900481019282620002895760008555620002d5565b82601f10620002a457805160ff1916838001178555620002d5565b82800160010185558215620002d5579182015b82811115620002d4578251825591602001919060010190620002b7565b5b509050620002e49190620002e8565b5090565b5b8082111562000303576000816000905550600101620002e9565b5090565b6000815190506200031881620003f8565b92915050565b600080604083850312156200033257600080fd5b6000620003428582860162000307565b9250506020620003558582860162000307565b9150509250929050565b60006200036c8262000373565b9050919050565b600073ffffffffffffffffffffffffffffffffffffffff82169050919050565b60006002820490506001821680620003ac57607f821691505b60208210811415620003c357620003c2620003c9565b5b50919050565b7f4e487b7100000000000000000000000000000000000000000000000000000000600052602260045260246000fd5b62000403816200035f565b81146200040f57600080fd5b50565b613f9780620004226000396000f3fe608060405234801561001057600080fd5b506004361061012c5760003560e01c8063715018a6116100ad578063a22cb46511610071578063a22cb46514610345578063b88d4fde14610361578063c87b56dd1461037d578063e985e9c5146103ad578063f2fde38b146103dd5761012c565b8063715018a6146102b15780637b1391a6146102bb5780638da5cb5b146102d957806395d89b41146102f7578063a0fff09e146103155761012c565b806323b872dd116100f457806323b872dd146101fb578063306cd3081461021757806342842e0e146102355780636352211e1461025157806370a08231146102815761012c565b806301ffc9a71461013157806306fdde0314610161578063081812fc1461017f578063095ea7b3146101af57806316f82e73146101cb575b600080fd5b61014b600480360381019061014691906128ec565b6103f9565b604051610158919061307d565b60405180910390f35b6101696104db565b60405161017691906130dd565b60405180910390f35b610199600480360381019061019491906129d1565b61056d565b6040516101a69190612f78565b60405180910390f35b6101c960048036038101906101c49190612887565b6105f2565b005b6101e560048036038101906101e0919061293e565b61070a565b6040516101f2919061341f565b60405180910390f35b61021560048036038101906102109190612781565b610909565b005b61021f610969565b60405161022c9190612f78565b60405180910390f35b61024f600480360381019061024a9190612781565b610993565b005b61026b600480360381019061026691906129d1565b6109b3565b6040516102789190612f78565b60405180910390f35b61029b6004803603810190610296919061271c565b610a65565b6040516102a8919061341f565b60405180910390f35b6102b9610b1d565b005b6102c3610ba5565b6040516102d09190612f78565b60405180910390f35b6102e1610bcf565b6040516102ee9190612f78565b60405180910390f35b6102ff610bf9565b60405161030c91906130dd565b60405180910390f35b61032f600480360381019061032a919061293e565b610c8b565b60405161033c919061307d565b60405180910390f35b61035f600480360381019061035a919061284b565b610d1e565b005b61037b600480360381019061037691906127d0565b610d34565b005b610397600480360381019061039291906129d1565b610d96565b6040516103a491906130dd565b60405180910390f35b6103c760048036038101906103c29190612745565b610ee8565b6040516103d4919061307d565b60405180910390f35b6103f760048036038101906103f2919061271c565b610f7c565b005b60007f80ac58cd000000000000000000000000000000000000000000000000000000007bffffffffffffffffffffffffffffffffffffffffffffffffffffffff1916827bffffffffffffffffffffffffffffffffffffffffffffffffffffffff191614806104c457507f5b5e139f000000000000000000000000000000000000000000000000000000007bffffffffffffffffffffffffffffffffffffffffffffffffffffffff1916827bffffffffffffffffffffffffffffffffffffffffffffffffffffffff1916145b806104d457506104d382611074565b5b9050919050565b6060600080546104ea9061368c565b80601f01602080910402602001604051908101604052809291908181526020018280546105169061368c565b80156105635780601f1061053857610100808354040283529160200191610563565b820191906000526020600020905b81548152906001019060200180831161054657829003601f168201915b5050505050905090565b6000610578826110de565b6105b7576040517f08c379a00000000000000000000000000000000000000000000000000000000081526004016105ae9061333f565b60405180910390fd5b6004600083815260200190815260200160002060009054906101000a900473ffffffffffffffffffffffffffffffffffffffff169050919050565b60006105fd826109b3565b90508073ffffffffffffffffffffffffffffffffffffffff168373ffffffffffffffffffffffffffffffffffffffff16141561066e576040517f08c379a0000000000000000000000000000000000000000000000000000000008152600401610665906133bf565b60405180910390fd5b8073ffffffffffffffffffffffffffffffffffffffff1661068d61114a565b73ffffffffffffffffffffffffffffffffffffffff1614806106bc57506106bb816106b661114a565b610ee8565b5b6106fb576040517f08c379a00000000000000000000000000000000000000000000000000000000081526004016106f29061323f565b60405180910390fd5b6107058383611152565b505050565b600060026007541415610752576040517f08c379a0000000000000000000000000000000000000000000000000000000008152600401610749906133ff565b60405180910390fd5b600260078190555061076685858585610c8b565b6107a5576040517f08c379a000000000000000000000000000000000000000000000000000000000815260040161079c906132bf565b60405180910390fd5b6107af338561120b565b6107b9600961130a565b60006107c56009611320565b90506107d1338261132e565b6107db8187611508565b610808600b60009054906101000a900473ffffffffffffffffffffffffffffffffffffffff166001610d1e565b600a60009054906101000a900473ffffffffffffffffffffffffffffffffffffffff1673ffffffffffffffffffffffffffffffffffffffff166323b872dd3386886040518463ffffffff1660e01b815260040161086793929190612fbc565b602060405180830381600087803b15801561088157600080fd5b505af1158015610895573d6000803e3d6000fd5b505050506040513d601f19601f820116820180604052508101906108b991906128c3565b507fd7192d61c4e633e64a433a609e2ae3b0e262e2a4f0a95fc7e2ccc14f3820231a3382886040516108ed9392919061303f565b60405180910390a1809150506001600781905550949350505050565b61091a61091461114a565b8261157c565b610959576040517f08c379a0000000000000000000000000000000000000000000000000000000008152600401610950906133df565b60405180910390fd5b61096483838361165a565b505050565b6000600a60009054906101000a900473ffffffffffffffffffffffffffffffffffffffff16905090565b6109ae83838360405180602001604052806000815250610d34565b505050565b6000806002600084815260200190815260200160002060009054906101000a900473ffffffffffffffffffffffffffffffffffffffff169050600073ffffffffffffffffffffffffffffffffffffffff168173ffffffffffffffffffffffffffffffffffffffff161415610a5c576040517f08c379a0000000000000000000000000000000000000000000000000000000008152600401610a539061327f565b60405180910390fd5b80915050919050565b60008073ffffffffffffffffffffffffffffffffffffffff168273ffffffffffffffffffffffffffffffffffffffff161415610ad6576040517f08c379a0000000000000000000000000000000000000000000000000000000008152600401610acd9061325f565b60405180910390fd5b600360008373ffffffffffffffffffffffffffffffffffffffff1673ffffffffffffffffffffffffffffffffffffffff168152602001908152602001600020549050919050565b610b2561114a565b73ffffffffffffffffffffffffffffffffffffffff16610b43610bcf565b73ffffffffffffffffffffffffffffffffffffffff1614610b99576040517f08c379a0000000000000000000000000000000000000000000000000000000008152600401610b909061335f565b60405180910390fd5b610ba360006118c1565b565b6000600b60009054906101000a900473ffffffffffffffffffffffffffffffffffffffff16905090565b6000600860009054906101000a900473ffffffffffffffffffffffffffffffffffffffff16905090565b606060018054610c089061368c565b80601f0160208091040260200160405190810160405280929190818152602001828054610c349061368c565b8015610c815780601f10610c5657610100808354040283529160200191610c81565b820191906000526020600020905b815481529060010190602001808311610c6457829003601f168201915b5050505050905090565b60008033868686604051602001610ca59493929190612ee4565b6040516020818303038152906040528051906020012090506000610cc882611987565b9050610cd2610bcf565b73ffffffffffffffffffffffffffffffffffffffff16610cfb85836119b790919063ffffffff16565b73ffffffffffffffffffffffffffffffffffffffff161492505050949350505050565b610d30610d2961114a565b83836119de565b5050565b610d45610d3f61114a565b8361157c565b610d84576040517f08c379a0000000000000000000000000000000000000000000000000000000008152600401610d7b906133df565b60405180910390fd5b610d9084848484611b4b565b50505050565b6060610da1826110de565b610de0576040517f08c379a0000000000000000000000000000000000000000000000000000000008152600401610dd79061331f565b60405180910390fd5b6000600660008481526020019081526020016000208054610e009061368c565b80601f0160208091040260200160405190810160405280929190818152602001828054610e2c9061368c565b8015610e795780601f10610e4e57610100808354040283529160200191610e79565b820191906000526020600020905b815481529060010190602001808311610e5c57829003601f168201915b505050505090506000610e8a611ba7565b9050600081511415610ea0578192505050610ee3565b600082511115610ed5578082604051602001610ebd929190612f2e565b60405160208183030381529060405292505050610ee3565b610ede84611bbe565b925050505b919050565b6000600560008473ffffffffffffffffffffffffffffffffffffffff1673ffffffffffffffffffffffffffffffffffffffff16815260200190815260200160002060008373ffffffffffffffffffffffffffffffffffffffff1673ffffffffffffffffffffffffffffffffffffffff16815260200190815260200160002060009054906101000a900460ff16905092915050565b610f8461114a565b73ffffffffffffffffffffffffffffffffffffffff16610fa2610bcf565b73ffffffffffffffffffffffffffffffffffffffff1614610ff8576040517f08c379a0000000000000000000000000000000000000000000000000000000008152600401610fef9061335f565b60405180910390fd5b600073ffffffffffffffffffffffffffffffffffffffff168173ffffffffffffffffffffffffffffffffffffffff161415611068576040517f08c379a000000000000000000000000000000000000000000000000000000000815260040161105f9061315f565b60405180910390fd5b611071816118c1565b50565b60007f01ffc9a7000000000000000000000000000000000000000000000000000000007bffffffffffffffffffffffffffffffffffffffffffffffffffffffff1916827bffffffffffffffffffffffffffffffffffffffffffffffffffffffff1916149050919050565b60008073ffffffffffffffffffffffffffffffffffffffff166002600084815260200190815260200160002060009054906101000a900473ffffffffffffffffffffffffffffffffffffffff1673ffffffffffffffffffffffffffffffffffffffff1614159050919050565b600033905090565b816004600083815260200190815260200160002060006101000a81548173ffffffffffffffffffffffffffffffffffffffff021916908373ffffffffffffffffffffffffffffffffffffffff160217905550808273ffffffffffffffffffffffffffffffffffffffff166111c5836109b3565b73ffffffffffffffffffffffffffffffffffffffff167f8c5be1e5ebec7d5bd14f71427d1e84f3dd0314c0f7b2291e5b200ac8c7c3b92560405160405180910390a45050565b6000600a60009054906101000a900473ffffffffffffffffffffffffffffffffffffffff16905060008173ffffffffffffffffffffffffffffffffffffffff1663dd62ed3e85306040518363ffffffff1660e01b815260040161126f929190612f93565b60206040518083038186803b15801561128757600080fd5b505afa15801561129b573d6000803e3d6000fd5b505050506040513d601f19601f820116820180604052508101906112bf91906129fa565b905082811015611304576040517f08c379a00000000000000000000000000000000000000000000000000000000081526004016112fb9061339f565b60405180910390fd5b50505050565b6001816000016000828254019250508190555050565b600081600001549050919050565b600073ffffffffffffffffffffffffffffffffffffffff168273ffffffffffffffffffffffffffffffffffffffff16141561139e576040517f08c379a0000000000000000000000000000000000000000000000000000000008152600401611395906132ff565b60405180910390fd5b6113a7816110de565b156113e7576040517f08c379a00000000000000000000000000000000000000000000000000000000081526004016113de9061319f565b60405180910390fd5b6113f360008383611c65565b6001600360008473ffffffffffffffffffffffffffffffffffffffff1673ffffffffffffffffffffffffffffffffffffffff16815260200190815260200160002060008282546114439190613504565b92505081905550816002600083815260200190815260200160002060006101000a81548173ffffffffffffffffffffffffffffffffffffffff021916908373ffffffffffffffffffffffffffffffffffffffff160217905550808273ffffffffffffffffffffffffffffffffffffffff16600073ffffffffffffffffffffffffffffffffffffffff167fddf252ad1be2c89b69c2b068fc378daa952ba7f163c4a11628f55a4df523b3ef60405160405180910390a461150460008383611c6a565b5050565b611511826110de565b611550576040517f08c379a00000000000000000000000000000000000000000000000000000000081526004016115479061329f565b60405180910390fd5b80600660008481526020019081526020016000209080519060200190611577929190612516565b505050565b6000611587826110de565b6115c6576040517f08c379a00000000000000000000000000000000000000000000000000000000081526004016115bd9061321f565b60405180910390fd5b60006115d1836109b3565b90508073ffffffffffffffffffffffffffffffffffffffff168473ffffffffffffffffffffffffffffffffffffffff16148061164057508373ffffffffffffffffffffffffffffffffffffffff166116288461056d565b73ffffffffffffffffffffffffffffffffffffffff16145b8061165157506116508185610ee8565b5b91505092915050565b8273ffffffffffffffffffffffffffffffffffffffff1661167a826109b3565b73ffffffffffffffffffffffffffffffffffffffff16146116d0576040517f08c379a00000000000000000000000000000000000000000000000000000000081526004016116c79061317f565b60405180910390fd5b600073ffffffffffffffffffffffffffffffffffffffff168273ffffffffffffffffffffffffffffffffffffffff161415611740576040517f08c379a0000000000000000000000000000000000000000000000000000000008152600401611737906131bf565b60405180910390fd5b61174b838383611c65565b611756600082611152565b6001600360008573ffffffffffffffffffffffffffffffffffffffff1673ffffffffffffffffffffffffffffffffffffffff16815260200190815260200160002060008282546117a6919061358b565b925050819055506001600360008473ffffffffffffffffffffffffffffffffffffffff1673ffffffffffffffffffffffffffffffffffffffff16815260200190815260200160002060008282546117fd9190613504565b92505081905550816002600083815260200190815260200160002060006101000a81548173ffffffffffffffffffffffffffffffffffffffff021916908373ffffffffffffffffffffffffffffffffffffffff160217905550808273ffffffffffffffffffffffffffffffffffffffff168473ffffffffffffffffffffffffffffffffffffffff167fddf252ad1be2c89b69c2b068fc378daa952ba7f163c4a11628f55a4df523b3ef60405160405180910390a46118bc838383611c6a565b505050565b6000600860009054906101000a900473ffffffffffffffffffffffffffffffffffffffff16905081600860006101000a81548173ffffffffffffffffffffffffffffffffffffffff021916908373ffffffffffffffffffffffffffffffffffffffff1602179055508173ffffffffffffffffffffffffffffffffffffffff168173ffffffffffffffffffffffffffffffffffffffff167f8be0079c531659141344cd1fd0a4f28419497f9722a3daafe3b4186f6b6457e060405160405180910390a35050565b60008160405160200161199a9190612f52565b604051602081830303815290604052805190602001209050919050565b60008060006119c68585611c6f565b915091506119d381611cf2565b819250505092915050565b8173ffffffffffffffffffffffffffffffffffffffff168373ffffffffffffffffffffffffffffffffffffffff161415611a4d576040517f08c379a0000000000000000000000000000000000000000000000000000000008152600401611a44906131df565b60405180910390fd5b80600560008573ffffffffffffffffffffffffffffffffffffffff1673ffffffffffffffffffffffffffffffffffffffff16815260200190815260200160002060008473ffffffffffffffffffffffffffffffffffffffff1673ffffffffffffffffffffffffffffffffffffffff16815260200190815260200160002060006101000a81548160ff0219169083151502179055508173ffffffffffffffffffffffffffffffffffffffff168373ffffffffffffffffffffffffffffffffffffffff167f17307eab39ab6107e8899845ad3d59bd9653f200f220920489ca2b5937696c3183604051611b3e919061307d565b60405180910390a3505050565b611b5684848461165a565b611b6284848484612043565b611ba1576040517f08c379a0000000000000000000000000000000000000000000000000000000008152600401611b989061313f565b60405180910390fd5b50505050565b606060405180602001604052806000815250905090565b6060611bc9826110de565b611c08576040517f08c379a0000000000000000000000000000000000000000000000000000000008152600401611bff9061337f565b60405180910390fd5b6000611c12611ba7565b90506000815111611c325760405180602001604052806000815250611c5d565b80611c3c846121da565b604051602001611c4d929190612f2e565b6040516020818303038152906040525b915050919050565b505050565b505050565b600080604183511415611cb15760008060006020860151925060408601519150606086015160001a9050611ca587828585612387565b94509450505050611ceb565b604083511415611ce2576000806020850151915060408501519050611cd7868383612494565b935093505050611ceb565b60006002915091505b9250929050565b60006004811115611d2c577f4e487b7100000000000000000000000000000000000000000000000000000000600052602160045260246000fd5b816004811115611d65577f4e487b7100000000000000000000000000000000000000000000000000000000600052602160045260246000fd5b1415611d7057612040565b60016004811115611daa577f4e487b7100000000000000000000000000000000000000000000000000000000600052602160045260246000fd5b816004811115611de3577f4e487b7100000000000000000000000000000000000000000000000000000000600052602160045260246000fd5b1415611e24576040517f08c379a0000000000000000000000000000000000000000000000000000000008152600401611e1b906130ff565b60405180910390fd5b60026004811115611e5e577f4e487b7100000000000000000000000000000000000000000000000000000000600052602160045260246000fd5b816004811115611e97577f4e487b7100000000000000000000000000000000000000000000000000000000600052602160045260246000fd5b1415611ed8576040517f08c379a0000000000000000000000000000000000000000000000000000000008152600401611ecf9061311f565b60405180910390fd5b60036004811115611f12577f4e487b7100000000000000000000000000000000000000000000000000000000600052602160045260246000fd5b816004811115611f4b577f4e487b7100000000000000000000000000000000000000000000000000000000600052602160045260246000fd5b1415611f8c576040517f08c379a0000000000000000000000000000000000000000000000000000000008152600401611f83906131ff565b60405180910390fd5b600480811115611fc5577f4e487b7100000000000000000000000000000000000000000000000000000000600052602160045260246000fd5b816004811115611ffe577f4e487b7100000000000000000000000000000000000000000000000000000000600052602160045260246000fd5b141561203f576040517f08c379a0000000000000000000000000000000000000000000000000000000008152600401612036906132df565b60405180910390fd5b5b50565b60006120648473ffffffffffffffffffffffffffffffffffffffff166124f3565b156121cd578373ffffffffffffffffffffffffffffffffffffffff1663150b7a0261208d61114a565b8786866040518563ffffffff1660e01b81526004016120af9493929190612ff3565b602060405180830381600087803b1580156120c957600080fd5b505af19250505080156120fa57506040513d601f19601f820116820180604052508101906120f79190612915565b60015b61217d573d806000811461212a576040519150601f19603f3d011682016040523d82523d6000602084013e61212f565b606091505b50600081511415612175576040517f08c379a000000000000000000000000000000000000000000000000000000000815260040161216c9061313f565b60405180910390fd5b805181602001fd5b63150b7a0260e01b7bffffffffffffffffffffffffffffffffffffffffffffffffffffffff1916817bffffffffffffffffffffffffffffffffffffffffffffffffffffffff1916149150506121d2565b600190505b949350505050565b60606000821415612222576040518060400160405280600181526020017f30000000000000000000000000000000000000000000000000000000000000008152509050612382565b600082905060005b6000821461225457808061223d906136ef565b915050600a8261224d919061355a565b915061222a565b60008167ffffffffffffffff811115612296577f4e487b7100000000000000000000000000000000000000000000000000000000600052604160045260246000fd5b6040519080825280601f01601f1916602001820160405280156122c85781602001600182028036833780820191505090505b5090505b6000851461237b576001826122e1919061358b565b9150600a856122f09190613770565b60306122fc9190613504565b60f81b818381518110612338577f4e487b7100000000000000000000000000000000000000000000000000000000600052603260045260246000fd5b60200101907effffffffffffffffffffffffffffffffffffffffffffffffffffffffffffff1916908160001a905350600a85612374919061355a565b94506122cc565b8093505050505b919050565b6000807f7fffffffffffffffffffffffffffffff5d576e7357a4501ddfe92f46681b20a08360001c11156123c257600060039150915061248b565b601b8560ff16141580156123da5750601c8560ff1614155b156123ec57600060049150915061248b565b6000600187878787604051600081526020016040526040516124119493929190613098565b6020604051602081039080840390855afa158015612433573d6000803e3d6000fd5b505050602060405103519050600073ffffffffffffffffffffffffffffffffffffffff168173ffffffffffffffffffffffffffffffffffffffff1614156124825760006001925092505061248b565b80600092509250505b94509492505050565b60008060007f7fffffffffffffffffffffffffffffffffffffffffffffffffffffffffffffff60001b841690506000601b60ff8660001c901c6124d79190613504565b90506124e587828885612387565b935093505050935093915050565b6000808273ffffffffffffffffffffffffffffffffffffffff163b119050919050565b8280546125229061368c565b90600052602060002090601f016020900481019282612544576000855561258b565b82601f1061255d57805160ff191683800117855561258b565b8280016001018555821561258b579182015b8281111561258a57825182559160200191906001019061256f565b5b509050612598919061259c565b5090565b5b808211156125b557600081600090555060010161259d565b5090565b60006125cc6125c78461345f565b61343a565b9050828152602081018484840111156125e457600080fd5b6125ef84828561364a565b509392505050565b600061260a61260584613490565b61343a565b90508281526020810184848401111561262257600080fd5b61262d84828561364a565b509392505050565b60008135905061264481613f05565b92915050565b60008135905061265981613f1c565b92915050565b60008151905061266e81613f1c565b92915050565b60008135905061268381613f33565b92915050565b60008151905061269881613f33565b92915050565b600082601f8301126126af57600080fd5b81356126bf8482602086016125b9565b91505092915050565b600082601f8301126126d957600080fd5b81356126e98482602086016125f7565b91505092915050565b60008135905061270181613f4a565b92915050565b60008151905061271681613f4a565b92915050565b60006020828403121561272e57600080fd5b600061273c84828501612635565b91505092915050565b6000806040838503121561275857600080fd5b600061276685828601612635565b925050602061277785828601612635565b9150509250929050565b60008060006060848603121561279657600080fd5b60006127a486828701612635565b93505060206127b586828701612635565b92505060406127c6868287016126f2565b9150509250925092565b600080600080608085870312156127e657600080fd5b60006127f487828801612635565b945050602061280587828801612635565b9350506040612816878288016126f2565b925050606085013567ffffffffffffffff81111561283357600080fd5b61283f8782880161269e565b91505092959194509250565b6000806040838503121561285e57600080fd5b600061286c85828601612635565b925050602061287d8582860161264a565b9150509250929050565b6000806040838503121561289a57600080fd5b60006128a885828601612635565b92505060206128b9858286016126f2565b9150509250929050565b6000602082840312156128d557600080fd5b60006128e38482850161265f565b91505092915050565b6000602082840312156128fe57600080fd5b600061290c84828501612674565b91505092915050565b60006020828403121561292757600080fd5b600061293584828501612689565b91505092915050565b6000806000806080858703121561295457600080fd5b600085013567ffffffffffffffff81111561296e57600080fd5b61297a878288016126c8565b945050602061298b878288016126f2565b935050604061299c87828801612635565b925050606085013567ffffffffffffffff8111156129b957600080fd5b6129c58782880161269e565b91505092959194509250565b6000602082840312156129e357600080fd5b60006129f1848285016126f2565b91505092915050565b600060208284031215612a0c57600080fd5b6000612a1a84828501612707565b91505092915050565b612a2c816135bf565b82525050565b612a43612a3e826135bf565b613738565b82525050565b612a52816135d1565b82525050565b612a61816135dd565b82525050565b612a78612a73826135dd565b61374a565b82525050565b6000612a89826134c1565b612a9381856134d7565b9350612aa3818560208601613659565b612aac8161385d565b840191505092915050565b6000612ac2826134cc565b612acc81856134e8565b9350612adc818560208601613659565b612ae58161385d565b840191505092915050565b6000612afb826134cc565b612b0581856134f9565b9350612b15818560208601613659565b80840191505092915050565b6000612b2e6018836134e8565b9150612b398261387b565b602082019050919050565b6000612b51601f836134e8565b9150612b5c826138a4565b602082019050919050565b6000612b74601c836134f9565b9150612b7f826138cd565b601c82019050919050565b6000612b976032836134e8565b9150612ba2826138f6565b604082019050919050565b6000612bba6026836134e8565b9150612bc582613945565b604082019050919050565b6000612bdd6025836134e8565b9150612be882613994565b604082019050919050565b6000612c00601c836134e8565b9150612c0b826139e3565b602082019050919050565b6000612c236024836134e8565b9150612c2e82613a0c565b604082019050919050565b6000612c466019836134e8565b9150612c5182613a5b565b602082019050919050565b6000612c696022836134e8565b9150612c7482613a84565b604082019050919050565b6000612c8c602c836134e8565b9150612c9782613ad3565b604082019050919050565b6000612caf6038836134e8565b9150612cba82613b22565b604082019050919050565b6000612cd2602a836134e8565b9150612cdd82613b71565b604082019050919050565b6000612cf56029836134e8565b9150612d0082613bc0565b604082019050919050565b6000612d18602e836134e8565b9150612d2382613c0f565b604082019050919050565b6000612d3b6019836134e8565b9150612d4682613c5e565b602082019050919050565b6000612d5e6022836134e8565b9150612d6982613c87565b604082019050919050565b6000612d816020836134e8565b9150612d8c82613cd6565b602082019050919050565b6000612da46031836134e8565b9150612daf82613cff565b604082019050919050565b6000612dc7602c836134e8565b9150612dd282613d4e565b604082019050919050565b6000612dea6020836134e8565b9150612df582613d9d565b602082019050919050565b6000612e0d602f836134e8565b9150612e1882613dc6565b604082019050919050565b6000612e30601a836134e8565b9150612e3b82613e15565b602082019050919050565b6000612e536021836134e8565b9150612e5e82613e3e565b604082019050919050565b6000612e766031836134e8565b9150612e8182613e8d565b604082019050919050565b6000612e99601f836134e8565b9150612ea482613edc565b602082019050919050565b612eb881613633565b82525050565b612ecf612eca82613633565b613766565b82525050565b612ede8161363d565b82525050565b6000612ef08287612a32565b601482019150612f008286612af0565b9150612f0c8285612ebe565b602082019150612f1c8284612a32565b60148201915081905095945050505050565b6000612f3a8285612af0565b9150612f468284612af0565b91508190509392505050565b6000612f5d82612b67565b9150612f698284612a67565b60208201915081905092915050565b6000602082019050612f8d6000830184612a23565b92915050565b6000604082019050612fa86000830185612a23565b612fb56020830184612a23565b9392505050565b6000606082019050612fd16000830186612a23565b612fde6020830185612a23565b612feb6040830184612eaf565b949350505050565b60006080820190506130086000830187612a23565b6130156020830186612a23565b6130226040830185612eaf565b81810360608301526130348184612a7e565b905095945050505050565b60006060820190506130546000830186612a23565b6130616020830185612eaf565b81810360408301526130738184612ab7565b9050949350505050565b60006020820190506130926000830184612a49565b92915050565b60006080820190506130ad6000830187612a58565b6130ba6020830186612ed5565b6130c76040830185612a58565b6130d46060830184612a58565b95945050505050565b600060208201905081810360008301526130f78184612ab7565b905092915050565b6000602082019050818103600083015261311881612b21565b9050919050565b6000602082019050818103600083015261313881612b44565b9050919050565b6000602082019050818103600083015261315881612b8a565b9050919050565b6000602082019050818103600083015261317881612bad565b9050919050565b6000602082019050818103600083015261319881612bd0565b9050919050565b600060208201905081810360008301526131b881612bf3565b9050919050565b600060208201905081810360008301526131d881612c16565b9050919050565b600060208201905081810360008301526131f881612c39565b9050919050565b6000602082019050818103600083015261321881612c5c565b9050919050565b6000602082019050818103600083015261323881612c7f565b9050919050565b6000602082019050818103600083015261325881612ca2565b9050919050565b6000602082019050818103600083015261327881612cc5565b9050919050565b6000602082019050818103600083015261329881612ce8565b9050919050565b600060208201905081810360008301526132b881612d0b565b9050919050565b600060208201905081810360008301526132d881612d2e565b9050919050565b600060208201905081810360008301526132f881612d51565b9050919050565b6000602082019050818103600083015261331881612d74565b9050919050565b6000602082019050818103600083015261333881612d97565b9050919050565b6000602082019050818103600083015261335881612dba565b9050919050565b6000602082019050818103600083015261337881612ddd565b9050919050565b6000602082019050818103600083015261339881612e00565b9050919050565b600060208201905081810360008301526133b881612e23565b9050919050565b600060208201905081810360008301526133d881612e46565b9050919050565b600060208201905081810360008301526133f881612e69565b9050919050565b6000602082019050818103600083015261341881612e8c565b9050919050565b60006020820190506134346000830184612eaf565b92915050565b6000613444613455565b905061345082826136be565b919050565b6000604051905090565b600067ffffffffffffffff82111561347a5761347961382e565b5b6134838261385d565b9050602081019050919050565b600067ffffffffffffffff8211156134ab576134aa61382e565b5b6134b48261385d565b9050602081019050919050565b600081519050919050565b600081519050919050565b600082825260208201905092915050565b600082825260208201905092915050565b600081905092915050565b600061350f82613633565b915061351a83613633565b9250827fffffffffffffffffffffffffffffffffffffffffffffffffffffffffffffffff0382111561354f5761354e6137a1565b5b828201905092915050565b600061356582613633565b915061357083613633565b9250826135805761357f6137d0565b5b828204905092915050565b600061359682613633565b91506135a183613633565b9250828210156135b4576135b36137a1565b5b828203905092915050565b60006135ca82613613565b9050919050565b60008115159050919050565b6000819050919050565b60007fffffffff0000000000000000000000000000000000000000000000000000000082169050919050565b600073ffffffffffffffffffffffffffffffffffffffff82169050919050565b6000819050919050565b600060ff82169050919050565b82818337600083830152505050565b60005b8381101561367757808201518184015260208101905061365c565b83811115613686576000848401525b50505050565b600060028204905060018216806136a457607f821691505b602082108114156136b8576136b76137ff565b5b50919050565b6136c78261385d565b810181811067ffffffffffffffff821117156136e6576136e561382e565b5b80604052505050565b60006136fa82613633565b91507fffffffffffffffffffffffffffffffffffffffffffffffffffffffffffffffff82141561372d5761372c6137a1565b5b600182019050919050565b600061374382613754565b9050919050565b6000819050919050565b600061375f8261386e565b9050919050565b6000819050919050565b600061377b82613633565b915061378683613633565b925082613796576137956137d0565b5b828206905092915050565b7f4e487b7100000000000000000000000000000000000000000000000000000000600052601160045260246000fd5b7f4e487b7100000000000000000000000000000000000000000000000000000000600052601260045260246000fd5b7f4e487b7100000000000000000000000000000000000000000000000000000000600052602260045260246000fd5b7f4e487b7100000000000000000000000000000000000000000000000000000000600052604160045260246000fd5b6000601f19601f8301169050919050565b60008160601b9050919050565b7f45434453413a20696e76616c6964207369676e61747572650000000000000000600082015250565b7f45434453413a20696e76616c6964207369676e6174757265206c656e67746800600082015250565b7f19457468657265756d205369676e6564204d6573736167653a0a333200000000600082015250565b7f4552433732313a207472616e7366657220746f206e6f6e20455243373231526560008201527f63656976657220696d706c656d656e7465720000000000000000000000000000602082015250565b7f4f776e61626c653a206e6577206f776e657220697320746865207a65726f206160008201527f6464726573730000000000000000000000000000000000000000000000000000602082015250565b7f4552433732313a207472616e736665722066726f6d20696e636f72726563742060008201527f6f776e6572000000000000000000000000000000000000000000000000000000602082015250565b7f4552433732313a20746f6b656e20616c7265616479206d696e74656400000000600082015250565b7f4552433732313a207472616e7366657220746f20746865207a65726f2061646460008201527f7265737300000000000000000000000000000000000000000000000000000000602082015250565b7f4552433732313a20617070726f766520746f2063616c6c657200000000000000600082015250565b7f45434453413a20696e76616c6964207369676e6174757265202773272076616c60008201527f7565000000000000000000000000000000000000000000000000000000000000602082015250565b7f4552433732313a206f70657261746f7220717565727920666f72206e6f6e657860008201527f697374656e7420746f6b656e0000000000000000000000000000000000000000602082015250565b7f4552433732313a20617070726f76652063616c6c6572206973206e6f74206f7760008201527f6e6572206e6f7220617070726f76656420666f7220616c6c0000000000000000602082015250565b7f4552433732313a2062616c616e636520717565727920666f7220746865207a6560008201527f726f206164647265737300000000000000000000000000000000000000000000602082015250565b7f4552433732313a206f776e657220717565727920666f72206e6f6e657869737460008201527f656e7420746f6b656e0000000000000000000000000000000000000000000000602082015250565b7f45524337323155524953746f726167653a2055524920736574206f66206e6f6e60008201527f6578697374656e7420746f6b656e000000000000000000000000000000000000602082015250565b7f4275794e46543a3a494e56414c49445f5349474e415455524500000000000000600082015250565b7f45434453413a20696e76616c6964207369676e6174757265202776272076616c60008201527f7565000000000000000000000000000000000000000000000000000000000000602082015250565b7f4552433732313a206d696e7420746f20746865207a65726f2061646472657373600082015250565b7f45524337323155524953746f726167653a2055524920717565727920666f722060008201527f6e6f6e6578697374656e7420746f6b656e000000000000000000000000000000602082015250565b7f4552433732313a20617070726f76656420717565727920666f72206e6f6e657860008201527f697374656e7420746f6b656e0000000000000000000000000000000000000000602082015250565b7f4f776e61626c653a2063616c6c6572206973206e6f7420746865206f776e6572600082015250565b7f4552433732314d657461646174613a2055524920717565727920666f72206e6f60008201527f6e6578697374656e7420746f6b656e0000000000000000000000000000000000602082015250565b7f4275794e46543a3a544f4b454e5f4e4f545f415050524f564544000000000000600082015250565b7f4552433732313a20617070726f76616c20746f2063757272656e74206f776e6560008201527f7200000000000000000000000000000000000000000000000000000000000000602082015250565b7f4552433732313a207472616e736665722063616c6c6572206973206e6f74206f60008201527f776e6572206e6f7220617070726f766564000000000000000000000000000000602082015250565b7f5265656e7472616e637947756172643a207265656e7472616e742063616c6c00600082015250565b613f0e816135bf565b8114613f1957600080fd5b50565b613f25816135d1565b8114613f3057600080fd5b50565b613f3c816135e7565b8114613f4757600080fd5b50565b613f5381613633565b8114613f5e57600080fd5b5056fea26469706673582212207538571cb84de2f561984dcd867b072e7a464c8a42ea635ace53f3528f70922964736f6c63430008040033",
  "linkReferences": {},
  "deployedLinkReferences": {}
}