{
  "_format": "hh-sol-artifact-1",
  "contractName": "StakingNFT",
  "sourceName": "contracts/StakingNFT.sol",
  "abi": [
    {
      "inputs": [
        {
          "internalType": "address",
          "name": "_rewardToken",
          "type": "address"
        },
        {
          "internalType": "address",
          "name": "_nftToken",
          "type": "address"
        }
      ],
      "stateMutability": "nonpayable",
      "type": "constructor"
    },
    {
      "anonymous": false,
      "inputs": [
        {
          "indexed": true,
          "internalType": "address",
          "name": "previousOwner",
          "type": "address"
        },
        {
          "indexed": true,
          "internalType": "address",
          "name": "newOwner",
          "type": "address"
        }
      ],
      "name": "OwnershipTransferred",
      "type": "event"
    },
    {
      "anonymous": false,
      "inputs": [
        {
          "indexed": false,
          "internalType": "address",
          "name": "account",
          "type": "address"
        }
      ],
      "name": "Paused",
      "type": "event"
    },
    {
      "anonymous": false,
      "inputs": [
        {
          "indexed": true,
          "internalType": "address",
          "name": "stakeHolder",
          "type": "address"
        },
        {
          "indexed": false,
          "internalType": "uint256",
          "name": "reward",
          "type": "uint256"
        }
      ],
      "name": "RewardPaid",
      "type": "event"
    },
    {
      "anonymous": false,
      "inputs": [
        {
          "indexed": true,
          "internalType": "address",
          "name": "stakeHolder",
          "type": "address"
        },
        {
          "indexed": false,
          "internalType": "uint256",
          "name": "tokenId",
          "type": "uint256"
        }
      ],
      "name": "Staked",
      "type": "event"
    },
    {
      "anonymous": false,
      "inputs": [
        {
          "indexed": false,
          "internalType": "address",
          "name": "account",
          "type": "address"
        }
      ],
      "name": "Unpaused",
      "type": "event"
    },
    {
      "anonymous": false,
      "inputs": [
        {
          "indexed": true,
          "internalType": "address",
          "name": "stakeHolder",
          "type": "address"
        },
        {
          "indexed": false,
          "internalType": "uint256",
          "name": "tokenId",
          "type": "uint256"
        }
      ],
      "name": "Unstaked",
      "type": "event"
    },
    {
      "inputs": [
        {
          "internalType": "address",
          "name": "account",
          "type": "address"
        }
      ],
      "name": "balanceOf",
      "outputs": [
        {
          "internalType": "uint256",
          "name": "",
          "type": "uint256"
        }
      ],
      "stateMutability": "view",
      "type": "function"
    },
    {
      "inputs": [],
      "name": "claimReward",
      "outputs": [],
      "stateMutability": "nonpayable",
      "type": "function"
    },
    {
      "inputs": [
        {
          "internalType": "address",
          "name": "receiver",
          "type": "address"
        }
      ],
      "name": "distributeReward",
      "outputs": [],
      "stateMutability": "nonpayable",
      "type": "function"
    },
    {
      "inputs": [
        {
          "internalType": "address",
          "name": "account",
          "type": "address"
        }
      ],
      "name": "earned",
      "outputs": [
        {
          "internalType": "uint256",
          "name": "",
          "type": "uint256"
        }
      ],
      "stateMutability": "view",
      "type": "function"
    },
    {
      "inputs": [],
      "name": "lastTimeRewardApplicable",
      "outputs": [
        {
          "internalType": "uint256",
          "name": "",
          "type": "uint256"
        }
      ],
      "stateMutability": "view",
      "type": "function"
    },
    {
      "inputs": [],
      "name": "lastUpdateTime",
      "outputs": [
        {
          "internalType": "uint256",
          "name": "",
          "type": "uint256"
        }
      ],
      "stateMutability": "view",
      "type": "function"
    },
    {
      "inputs": [],
      "name": "nftToken",
      "outputs": [
        {
          "internalType": "contract IERC721",
          "name": "",
          "type": "address"
        }
      ],
      "stateMutability": "view",
      "type": "function"
    },
    {
      "inputs": [],
      "name": "owner",
      "outputs": [
        {
          "internalType": "address",
          "name": "",
          "type": "address"
        }
      ],
      "stateMutability": "view",
      "type": "function"
    },
    {
      "inputs": [],
      "name": "paused",
      "outputs": [
        {
          "internalType": "bool",
          "name": "",
          "type": "bool"
        }
      ],
      "stateMutability": "view",
      "type": "function"
    },
    {
      "inputs": [],
      "name": "periodFinish",
      "outputs": [
        {
          "internalType": "uint256",
          "name": "",
          "type": "uint256"
        }
      ],
      "stateMutability": "view",
      "type": "function"
    },
    {
      "inputs": [],
      "name": "renounceOwnership",
      "outputs": [],
      "stateMutability": "nonpayable",
      "type": "function"
    },
    {
      "inputs": [],
      "name": "rewardPerToken",
      "outputs": [
        {
          "internalType": "uint256",
          "name": "",
          "type": "uint256"
        }
      ],
      "stateMutability": "view",
      "type": "function"
    },
    {
      "inputs": [],
      "name": "rewardPerTokenStored",
      "outputs": [
        {
          "internalType": "uint256",
          "name": "",
          "type": "uint256"
        }
      ],
      "stateMutability": "view",
      "type": "function"
    },
    {
      "inputs": [],
      "name": "rewardRate",
      "outputs": [
        {
          "internalType": "uint256",
          "name": "",
          "type": "uint256"
        }
      ],
      "stateMutability": "view",
      "type": "function"
    },
    {
      "inputs": [],
      "name": "rewardToken",
      "outputs": [
        {
          "internalType": "contract IERC20",
          "name": "",
          "type": "address"
        }
      ],
      "stateMutability": "view",
      "type": "function"
    },
    {
      "inputs": [
        {
          "internalType": "address",
          "name": "",
          "type": "address"
        }
      ],
      "name": "rewards",
      "outputs": [
        {
          "internalType": "uint256",
          "name": "",
          "type": "uint256"
        }
      ],
      "stateMutability": "view",
      "type": "function"
    },
    {
      "inputs": [
        {
          "internalType": "address",
          "name": "receiver",
          "type": "address"
        }
      ],
      "name": "sendReward",
      "outputs": [],
      "stateMutability": "nonpayable",
      "type": "function"
    },
    {
      "inputs": [
        {
          "internalType": "uint256",
          "name": "_tokenId",
          "type": "uint256"
        },
        {
          "internalType": "uint256",
          "name": "_price",
          "type": "uint256"
        },
        {
          "internalType": "bytes",
          "name": "_signature",
          "type": "bytes"
        }
      ],
      "name": "stake",
      "outputs": [],
      "stateMutability": "nonpayable",
      "type": "function"
    },
    {
      "inputs": [
        {
          "internalType": "address",
          "name": "",
          "type": "address"
        },
        {
          "internalType": "uint256",
          "name": "",
          "type": "uint256"
        }
      ],
      "name": "stakeNftPrice",
      "outputs": [
        {
          "internalType": "uint256",
          "name": "",
          "type": "uint256"
        }
      ],
      "stateMutability": "view",
      "type": "function"
    },
    {
      "inputs": [],
      "name": "totalSupply",
      "outputs": [
        {
          "internalType": "uint256",
          "name": "",
          "type": "uint256"
        }
      ],
      "stateMutability": "view",
      "type": "function"
    },
    {
      "inputs": [
        {
          "internalType": "address",
          "name": "newOwner",
          "type": "address"
        }
      ],
      "name": "transferOwnership",
      "outputs": [],
      "stateMutability": "nonpayable",
      "type": "function"
    },
    {
      "inputs": [
        {
          "internalType": "uint256",
          "name": "_tokenId",
          "type": "uint256"
        }
      ],
      "name": "unstake",
      "outputs": [],
      "stateMutability": "nonpayable",
      "type": "function"
    },
    {
      "inputs": [
        {
          "internalType": "address",
          "name": "",
          "type": "address"
        }
      ],
      "name": "userRewardPerTokenPaid",
      "outputs": [
        {
          "internalType": "uint256",
          "name": "",
          "type": "uint256"
        }
      ],
      "stateMutability": "view",
      "type": "function"
    },
    {
      "inputs": [
        {
          "internalType": "uint256",
          "name": "_tokenId",
          "type": "uint256"
        },
        {
          "internalType": "uint256",
          "name": "_price",
          "type": "uint256"
        },
        {
          "internalType": "bytes",
          "name": "_signature",
          "type": "bytes"
        }
      ],
      "name": "verifySignature",
      "outputs": [
        {
          "internalType": "bool",
          "name": "",
          "type": "bool"
        }
      ],
      "stateMutability": "view",
      "type": "function"
    }
  ],
  "bytecode": "0x6080604052600060045567016345785d8a00006005553480156200002257600080fd5b5060405162003119380380620031198339818101604052810190620000489190620001f7565b60016000819055506000600160006101000a81548160ff0219169083151502179055506200008b6200007f6200011560201b60201c565b6200011d60201b60201c565b81600260006101000a81548173ffffffffffffffffffffffffffffffffffffffff021916908373ffffffffffffffffffffffffffffffffffffffff16021790555080600360006101000a81548173ffffffffffffffffffffffffffffffffffffffff021916908373ffffffffffffffffffffffffffffffffffffffff160217905550505062000286565b600033905090565b600060018054906101000a900473ffffffffffffffffffffffffffffffffffffffff169050816001806101000a81548173ffffffffffffffffffffffffffffffffffffffff021916908373ffffffffffffffffffffffffffffffffffffffff1602179055508173ffffffffffffffffffffffffffffffffffffffff168173ffffffffffffffffffffffffffffffffffffffff167f8be0079c531659141344cd1fd0a4f28419497f9722a3daafe3b4186f6b6457e060405160405180910390a35050565b600081519050620001f1816200026c565b92915050565b600080604083850312156200020b57600080fd5b60006200021b85828601620001e0565b92505060206200022e85828601620001e0565b9150509250929050565b600062000245826200024c565b9050919050565b600073ffffffffffffffffffffffffffffffffffffffff82169050919050565b620002778162000238565b81146200028357600080fd5b50565b612e8380620002966000396000f3fe608060405234801561001057600080fd5b50600436106101575760003560e01c80638b876347116100c3578063cd3daf9d1161007c578063cd3daf9d146103b4578063d06fcba8146103d2578063df136d65146103f0578063ebe2b12b1461040e578063f2fde38b1461042c578063f7c618c11461044857610157565b80638b876347146102f25780638da5cb5b146103225780639dabff2514610340578063a13437fd1461035c578063b88a802f1461038c578063c8f33c911461039657610157565b80635c975abb116101155780635c975abb1461022e5780635fa2d69a1461024c57806370a082311461027c578063715018a6146102ac5780637b0a47ee146102b657806380faa57d146102d457610157565b80628cc2621461015c5780630700037d1461018c578063092193ab146101bc57806318160ddd146101d85780632e17de78146101f657806348c35d4614610212575b600080fd5b61017660048036038101906101719190611f73565b610466565b6040516101839190612723565b60405180910390f35b6101a660048036038101906101a19190611f73565b610584565b6040516101b39190612723565b60405180910390f35b6101d660048036038101906101d19190611f73565b61059c565b005b6101e061075f565b6040516101ed9190612723565b60405180910390f35b610210600480360381019061020b9190612001565b610769565b005b61022c6004803603810190610227919061202a565b610acf565b005b610236610ec8565b60405161024391906124ab565b60405180910390f35b6102666004803603810190610261919061202a565b610edf565b60405161027391906124ab565b60405180910390f35b61029660048036038101906102919190611f73565b610f6f565b6040516102a39190612723565b60405180910390f35b6102b4610fb8565b005b6102be611040565b6040516102cb9190612723565b60405180910390f35b6102dc611046565b6040516102e99190612723565b60405180910390f35b61030c60048036038101906103079190611f73565b61104e565b6040516103199190612723565b60405180910390f35b61032a611066565b6040516103379190612430565b60405180910390f35b61035a60048036038101906103559190611f73565b61108e565b005b61037660048036038101906103719190611f9c565b6111c0565b6040516103839190612723565b60405180910390f35b6103946111e5565b005b61039e61132b565b6040516103ab9190612723565b60405180910390f35b6103bc611331565b6040516103c99190612723565b60405180910390f35b6103da6113bf565b6040516103e79190612526565b60405180910390f35b6103f86113e5565b6040516104059190612723565b60405180910390f35b6104166113eb565b6040516104239190612723565b60405180910390f35b61044660048036038101906104419190611f73565b6113f1565b005b6104506114e9565b60405161045d919061250b565b60405180910390f35b600061057d600960008473ffffffffffffffffffffffffffffffffffffffff1673ffffffffffffffffffffffffffffffffffffffff1681526020019081526020016000205461056f670de0b6b3a7640000610561610513600860008973ffffffffffffffffffffffffffffffffffffffff1673ffffffffffffffffffffffffffffffffffffffff16815260200190815260200160002054610505611331565b61150f90919063ffffffff16565b600c60008973ffffffffffffffffffffffffffffffffffffffff1673ffffffffffffffffffffffffffffffffffffffff1681526020019081526020016000205461152590919063ffffffff16565b61153b90919063ffffffff16565b61155190919063ffffffff16565b9050919050565b60096020528060005260406000206000915090505481565b600260005414156105e2576040517f08c379a00000000000000000000000000000000000000000000000000000000081526004016105d990612703565b60405180910390fd5b6002600081905550806105f3611331565b600781905550610601611046565b600681905550600073ffffffffffffffffffffffffffffffffffffffff168173ffffffffffffffffffffffffffffffffffffffff16146106ce5761064481610466565b600960008373ffffffffffffffffffffffffffffffffffffffff1673ffffffffffffffffffffffffffffffffffffffff16815260200190815260200160002081905550600754600860008373ffffffffffffffffffffffffffffffffffffffff1673ffffffffffffffffffffffffffffffffffffffff168152602001908152602001600020819055505b6106d6611567565b73ffffffffffffffffffffffffffffffffffffffff166106f4611066565b73ffffffffffffffffffffffffffffffffffffffff161461074a576040517f08c379a000000000000000000000000000000000000000000000000000000000815260040161074190612683565b60405180910390fd5b6107538261108e565b50600160008190555050565b6000600b54905090565b600260005414156107af576040517f08c379a00000000000000000000000000000000000000000000000000000000081526004016107a690612703565b60405180910390fd5b6002600081905550336107c0611331565b6007819055506107ce611046565b600681905550600073ffffffffffffffffffffffffffffffffffffffff168173ffffffffffffffffffffffffffffffffffffffff161461089b5761081181610466565b600960008373ffffffffffffffffffffffffffffffffffffffff1673ffffffffffffffffffffffffffffffffffffffff16815260200190815260200160002081905550600754600860008373ffffffffffffffffffffffffffffffffffffffff1673ffffffffffffffffffffffffffffffffffffffff168152602001908152602001600020819055505b6000600a60003373ffffffffffffffffffffffffffffffffffffffff1673ffffffffffffffffffffffffffffffffffffffff168152602001908152602001600020600084815260200190815260200160002054905060008111610933576040517f08c379a000000000000000000000000000000000000000000000000000000000815260040161092a906126e3565b60405180910390fd5b61094881600b5461150f90919063ffffffff16565b600b819055506109a081600c60003373ffffffffffffffffffffffffffffffffffffffff1673ffffffffffffffffffffffffffffffffffffffff1681526020019081526020016000205461150f90919063ffffffff16565b600c60003373ffffffffffffffffffffffffffffffffffffffff1673ffffffffffffffffffffffffffffffffffffffff16815260200190815260200160002081905550600360009054906101000a900473ffffffffffffffffffffffffffffffffffffffff1673ffffffffffffffffffffffffffffffffffffffff166323b872dd3033866040518463ffffffff1660e01b8152600401610a429392919061244b565b600060405180830381600087803b158015610a5c57600080fd5b505af1158015610a70573d6000803e3d6000fd5b505050503373ffffffffffffffffffffffffffffffffffffffff167f0f5bb82176feb1b5e747e28471aa92156a04d9f3ab9f45f28e2d704232b93f7584604051610aba9190612723565b60405180910390a25050600160008190555050565b60026000541415610b15576040517f08c379a0000000000000000000000000000000000000000000000000000000008152600401610b0c90612703565b60405180910390fd5b6002600081905550610b25610ec8565b15610b65576040517f08c379a0000000000000000000000000000000000000000000000000000000008152600401610b5c90612623565b60405180910390fd5b33610b6e611331565b600781905550610b7c611046565b600681905550600073ffffffffffffffffffffffffffffffffffffffff168173ffffffffffffffffffffffffffffffffffffffff1614610c4957610bbf81610466565b600960008373ffffffffffffffffffffffffffffffffffffffff1673ffffffffffffffffffffffffffffffffffffffff16815260200190815260200160002081905550600754600860008373ffffffffffffffffffffffffffffffffffffffff1673ffffffffffffffffffffffffffffffffffffffff168152602001908152602001600020819055505b60008311610c8c576040517f08c379a0000000000000000000000000000000000000000000000000000000008152600401610c83906125c3565b60405180910390fd5b610c97848484610edf565b610cd6576040517f08c379a0000000000000000000000000000000000000000000000000000000008152600401610ccd90612643565b60405180910390fd5b600360009054906101000a900473ffffffffffffffffffffffffffffffffffffffff1673ffffffffffffffffffffffffffffffffffffffff166323b872dd3330876040518463ffffffff1660e01b8152600401610d359392919061244b565b600060405180830381600087803b158015610d4f57600080fd5b505af1158015610d63573d6000803e3d6000fd5b50505050610d7c83600b5461155190919063ffffffff16565b600b81905550610dd483600c60003373ffffffffffffffffffffffffffffffffffffffff1673ffffffffffffffffffffffffffffffffffffffff1681526020019081526020016000205461155190919063ffffffff16565b600c60003373ffffffffffffffffffffffffffffffffffffffff1673ffffffffffffffffffffffffffffffffffffffff1681526020019081526020016000208190555082600a60003373ffffffffffffffffffffffffffffffffffffffff1673ffffffffffffffffffffffffffffffffffffffff1681526020019081526020016000206000868152602001908152602001600020819055503373ffffffffffffffffffffffffffffffffffffffff167f9e71bc8eea02a63969f509818f2dafb9254532904319f9dbda79b67bd34a5f3d85604051610eb29190612723565b60405180910390a2506001600081905550505050565b6000600160009054906101000a900460ff16905090565b600080338585604051602001610ef7939291906123b6565b6040516020818303038152906040528051906020012090506000610f1a8261156f565b9050610f24611066565b73ffffffffffffffffffffffffffffffffffffffff16610f4d858361159f90919063ffffffff16565b73ffffffffffffffffffffffffffffffffffffffff1614925050509392505050565b6000600c60008373ffffffffffffffffffffffffffffffffffffffff1673ffffffffffffffffffffffffffffffffffffffff168152602001908152602001600020549050919050565b610fc0611567565b73ffffffffffffffffffffffffffffffffffffffff16610fde611066565b73ffffffffffffffffffffffffffffffffffffffff1614611034576040517f08c379a000000000000000000000000000000000000000000000000000000000815260040161102b90612683565b60405180910390fd5b61103e60006115c6565b565b60055481565b600042905090565b60086020528060005260406000206000915090505481565b600060018054906101000a900473ffffffffffffffffffffffffffffffffffffffff16905090565b6000600960008373ffffffffffffffffffffffffffffffffffffffff1673ffffffffffffffffffffffffffffffffffffffff16815260200190815260200160002054905060008111156111bc576000600960008473ffffffffffffffffffffffffffffffffffffffff1673ffffffffffffffffffffffffffffffffffffffff1681526020019081526020016000208190555061116d8282600260009054906101000a900473ffffffffffffffffffffffffffffffffffffffff1673ffffffffffffffffffffffffffffffffffffffff166116899092919063ffffffff16565b8173ffffffffffffffffffffffffffffffffffffffff167fe2403640ba68fed3a2f88b7557551d1993f84b99bb10ff833f0cf8db0c5e0486826040516111b39190612723565b60405180910390a25b5050565b600a602052816000526040600020602052806000526040600020600091509150505481565b6002600054141561122b576040517f08c379a000000000000000000000000000000000000000000000000000000000815260040161122290612703565b60405180910390fd5b60026000819055503361123c611331565b60078190555061124a611046565b600681905550600073ffffffffffffffffffffffffffffffffffffffff168173ffffffffffffffffffffffffffffffffffffffff16146113175761128d81610466565b600960008373ffffffffffffffffffffffffffffffffffffffff1673ffffffffffffffffffffffffffffffffffffffff16815260200190815260200160002081905550600754600860008373ffffffffffffffffffffffffffffffffffffffff1673ffffffffffffffffffffffffffffffffffffffff168152602001908152602001600020819055505b6113203361108e565b506001600081905550565b60065481565b600080600b5414156113475760075490506113bc565b6113b96113a8600b5461139a670de0b6b3a764000061138c60055461137e600654611370611046565b61150f90919063ffffffff16565b61152590919063ffffffff16565b61152590919063ffffffff16565b61153b90919063ffffffff16565b60075461155190919063ffffffff16565b90505b90565b600360009054906101000a900473ffffffffffffffffffffffffffffffffffffffff1681565b60075481565b60045481565b6113f9611567565b73ffffffffffffffffffffffffffffffffffffffff16611417611066565b73ffffffffffffffffffffffffffffffffffffffff161461146d576040517f08c379a000000000000000000000000000000000000000000000000000000000815260040161146490612683565b60405180910390fd5b600073ffffffffffffffffffffffffffffffffffffffff168173ffffffffffffffffffffffffffffffffffffffff1614156114dd576040517f08c379a00000000000000000000000000000000000000000000000000000000081526004016114d4906125a3565b60405180910390fd5b6114e6816115c6565b50565b600260009054906101000a900473ffffffffffffffffffffffffffffffffffffffff1681565b6000818361151d91906128b2565b905092915050565b600081836115339190612858565b905092915050565b600081836115499190612827565b905092915050565b6000818361155f91906127d1565b905092915050565b600033905090565b600081604051602001611582919061240a565b604051602081830303815290604052805190602001209050919050565b60008060006115ae858561170f565b915091506115bb81611792565b819250505092915050565b600060018054906101000a900473ffffffffffffffffffffffffffffffffffffffff169050816001806101000a81548173ffffffffffffffffffffffffffffffffffffffff021916908373ffffffffffffffffffffffffffffffffffffffff1602179055508173ffffffffffffffffffffffffffffffffffffffff168173ffffffffffffffffffffffffffffffffffffffff167f8be0079c531659141344cd1fd0a4f28419497f9722a3daafe3b4186f6b6457e060405160405180910390a35050565b61170a8363a9059cbb60e01b84846040516024016116a8929190612482565b604051602081830303815290604052907bffffffffffffffffffffffffffffffffffffffffffffffffffffffff19166020820180517bffffffffffffffffffffffffffffffffffffffffffffffffffffffff8381831617835250505050611ae3565b505050565b6000806041835114156117515760008060006020860151925060408601519150606086015160001a905061174587828585611baa565b9450945050505061178b565b604083511415611782576000806020850151915060408501519050611777868383611cb7565b93509350505061178b565b60006002915091505b9250929050565b600060048111156117cc577f4e487b7100000000000000000000000000000000000000000000000000000000600052602160045260246000fd5b816004811115611805577f4e487b7100000000000000000000000000000000000000000000000000000000600052602160045260246000fd5b141561181057611ae0565b6001600481111561184a577f4e487b7100000000000000000000000000000000000000000000000000000000600052602160045260246000fd5b816004811115611883577f4e487b7100000000000000000000000000000000000000000000000000000000600052602160045260246000fd5b14156118c4576040517f08c379a00000000000000000000000000000000000000000000000000000000081526004016118bb90612563565b60405180910390fd5b600260048111156118fe577f4e487b7100000000000000000000000000000000000000000000000000000000600052602160045260246000fd5b816004811115611937577f4e487b7100000000000000000000000000000000000000000000000000000000600052602160045260246000fd5b1415611978576040517f08c379a000000000000000000000000000000000000000000000000000000000815260040161196f90612583565b60405180910390fd5b600360048111156119b2577f4e487b7100000000000000000000000000000000000000000000000000000000600052602160045260246000fd5b8160048111156119eb577f4e487b7100000000000000000000000000000000000000000000000000000000600052602160045260246000fd5b1415611a2c576040517f08c379a0000000000000000000000000000000000000000000000000000000008152600401611a23906125e3565b60405180910390fd5b600480811115611a65577f4e487b7100000000000000000000000000000000000000000000000000000000600052602160045260246000fd5b816004811115611a9e577f4e487b7100000000000000000000000000000000000000000000000000000000600052602160045260246000fd5b1415611adf576040517f08c379a0000000000000000000000000000000000000000000000000000000008152600401611ad690612663565b60405180910390fd5b5b50565b6000611b45826040518060400160405280602081526020017f5361666545524332303a206c6f772d6c6576656c2063616c6c206661696c65648152508573ffffffffffffffffffffffffffffffffffffffff16611d169092919063ffffffff16565b9050600081511115611ba55780806020019051810190611b659190611fd8565b611ba4576040517f08c379a0000000000000000000000000000000000000000000000000000000008152600401611b9b906126c3565b60405180910390fd5b5b505050565b6000807f7fffffffffffffffffffffffffffffff5d576e7357a4501ddfe92f46681b20a08360001c1115611be5576000600391509150611cae565b601b8560ff1614158015611bfd5750601c8560ff1614155b15611c0f576000600491509150611cae565b600060018787878760405160008152602001604052604051611c3494939291906124c6565b6020604051602081039080840390855afa158015611c56573d6000803e3d6000fd5b505050602060405103519050600073ffffffffffffffffffffffffffffffffffffffff168173ffffffffffffffffffffffffffffffffffffffff161415611ca557600060019250925050611cae565b80600092509250505b94509492505050565b60008060007f7fffffffffffffffffffffffffffffffffffffffffffffffffffffffffffffff60001b841690506000601b60ff8660001c901c611cfa91906127d1565b9050611d0887828885611baa565b935093505050935093915050565b6060611d258484600085611d2e565b90509392505050565b606082471015611d73576040517f08c379a0000000000000000000000000000000000000000000000000000000008152600401611d6a90612603565b60405180910390fd5b611d7c85611e42565b611dbb576040517f08c379a0000000000000000000000000000000000000000000000000000000008152600401611db2906126a3565b60405180910390fd5b6000808673ffffffffffffffffffffffffffffffffffffffff168587604051611de491906123f3565b60006040518083038185875af1925050503d8060008114611e21576040519150601f19603f3d011682016040523d82523d6000602084013e611e26565b606091505b5091509150611e36828286611e65565b92505050949350505050565b6000808273ffffffffffffffffffffffffffffffffffffffff163b119050919050565b60608315611e7557829050611ec5565b600083511115611e885782518084602001fd5b816040517f08c379a0000000000000000000000000000000000000000000000000000000008152600401611ebc9190612541565b60405180910390fd5b9392505050565b6000611edf611eda84612763565b61273e565b905082815260208101848484011115611ef757600080fd5b611f0284828561298d565b509392505050565b600081359050611f1981612e08565b92915050565b600081519050611f2e81612e1f565b92915050565b600082601f830112611f4557600080fd5b8135611f55848260208601611ecc565b91505092915050565b600081359050611f6d81612e36565b92915050565b600060208284031215611f8557600080fd5b6000611f9384828501611f0a565b91505092915050565b60008060408385031215611faf57600080fd5b6000611fbd85828601611f0a565b9250506020611fce85828601611f5e565b9150509250929050565b600060208284031215611fea57600080fd5b6000611ff884828501611f1f565b91505092915050565b60006020828403121561201357600080fd5b600061202184828501611f5e565b91505092915050565b60008060006060848603121561203f57600080fd5b600061204d86828701611f5e565b935050602061205e86828701611f5e565b925050604084013567ffffffffffffffff81111561207b57600080fd5b61208786828701611f34565b9150509250925092565b61209a816128e6565b82525050565b6120b16120ac826128e6565b612a00565b82525050565b6120c0816128f8565b82525050565b6120cf81612904565b82525050565b6120e66120e182612904565b612a12565b82525050565b60006120f782612794565b61210181856127aa565b935061211181856020860161299c565b80840191505092915050565b61212681612945565b82525050565b61213581612969565b82525050565b60006121468261279f565b61215081856127b5565b935061216081856020860161299c565b61216981612ac5565b840191505092915050565b60006121816018836127b5565b915061218c82612ae3565b602082019050919050565b60006121a4601f836127b5565b91506121af82612b0c565b602082019050919050565b60006121c7601c836127c6565b91506121d282612b35565b601c82019050919050565b60006121ea6026836127b5565b91506121f582612b5e565b604082019050919050565b600061220d601f836127b5565b915061221882612bad565b602082019050919050565b60006122306022836127b5565b915061223b82612bd6565b604082019050919050565b60006122536026836127b5565b915061225e82612c25565b604082019050919050565b60006122766010836127b5565b915061228182612c74565b602082019050919050565b6000612299601c836127b5565b91506122a482612c9d565b602082019050919050565b60006122bc6022836127b5565b91506122c782612cc6565b604082019050919050565b60006122df6020836127b5565b91506122ea82612d15565b602082019050919050565b6000612302601d836127b5565b915061230d82612d3e565b602082019050919050565b6000612325602a836127b5565b915061233082612d67565b604082019050919050565b6000612348601b836127b5565b915061235382612db6565b602082019050919050565b600061236b601f836127b5565b915061237682612ddf565b602082019050919050565b61238a8161292e565b82525050565b6123a161239c8261292e565b612a2e565b82525050565b6123b081612938565b82525050565b60006123c282866120a0565b6014820191506123d28285612390565b6020820191506123e28284612390565b602082019150819050949350505050565b60006123ff82846120ec565b915081905092915050565b6000612415826121ba565b915061242182846120d5565b60208201915081905092915050565b60006020820190506124456000830184612091565b92915050565b60006060820190506124606000830186612091565b61246d6020830185612091565b61247a6040830184612381565b949350505050565b60006040820190506124976000830185612091565b6124a46020830184612381565b9392505050565b60006020820190506124c060008301846120b7565b92915050565b60006080820190506124db60008301876120c6565b6124e860208301866123a7565b6124f560408301856120c6565b61250260608301846120c6565b95945050505050565b6000602082019050612520600083018461211d565b92915050565b600060208201905061253b600083018461212c565b92915050565b6000602082019050818103600083015261255b818461213b565b905092915050565b6000602082019050818103600083015261257c81612174565b9050919050565b6000602082019050818103600083015261259c81612197565b9050919050565b600060208201905081810360008301526125bc816121dd565b9050919050565b600060208201905081810360008301526125dc81612200565b9050919050565b600060208201905081810360008301526125fc81612223565b9050919050565b6000602082019050818103600083015261261c81612246565b9050919050565b6000602082019050818103600083015261263c81612269565b9050919050565b6000602082019050818103600083015261265c8161228c565b9050919050565b6000602082019050818103600083015261267c816122af565b9050919050565b6000602082019050818103600083015261269c816122d2565b9050919050565b600060208201905081810360008301526126bc816122f5565b9050919050565b600060208201905081810360008301526126dc81612318565b9050919050565b600060208201905081810360008301526126fc8161233b565b9050919050565b6000602082019050818103600083015261271c8161235e565b9050919050565b60006020820190506127386000830184612381565b92915050565b6000612748612759565b905061275482826129cf565b919050565b6000604051905090565b600067ffffffffffffffff82111561277e5761277d612a96565b5b61278782612ac5565b9050602081019050919050565b600081519050919050565b600081519050919050565b600081905092915050565b600082825260208201905092915050565b600081905092915050565b60006127dc8261292e565b91506127e78361292e565b9250827fffffffffffffffffffffffffffffffffffffffffffffffffffffffffffffffff0382111561281c5761281b612a38565b5b828201905092915050565b60006128328261292e565b915061283d8361292e565b92508261284d5761284c612a67565b5b828204905092915050565b60006128638261292e565b915061286e8361292e565b9250817fffffffffffffffffffffffffffffffffffffffffffffffffffffffffffffffff04831182151516156128a7576128a6612a38565b5b828202905092915050565b60006128bd8261292e565b91506128c88361292e565b9250828210156128db576128da612a38565b5b828203905092915050565b60006128f18261290e565b9050919050565b60008115159050919050565b6000819050919050565b600073ffffffffffffffffffffffffffffffffffffffff82169050919050565b6000819050919050565b600060ff82169050919050565b600061295082612957565b9050919050565b60006129628261290e565b9050919050565b60006129748261297b565b9050919050565b60006129868261290e565b9050919050565b82818337600083830152505050565b60005b838110156129ba57808201518184015260208101905061299f565b838111156129c9576000848401525b50505050565b6129d882612ac5565b810181811067ffffffffffffffff821117156129f7576129f6612a96565b5b80604052505050565b6000612a0b82612a1c565b9050919050565b6000819050919050565b6000612a2782612ad6565b9050919050565b6000819050919050565b7f4e487b7100000000000000000000000000000000000000000000000000000000600052601160045260246000fd5b7f4e487b7100000000000000000000000000000000000000000000000000000000600052601260045260246000fd5b7f4e487b7100000000000000000000000000000000000000000000000000000000600052604160045260246000fd5b6000601f19601f8301169050919050565b60008160601b9050919050565b7f45434453413a20696e76616c6964207369676e61747572650000000000000000600082015250565b7f45434453413a20696e76616c6964207369676e6174757265206c656e67746800600082015250565b7f19457468657265756d205369676e6564204d6573736167653a0a333200000000600082015250565b7f4f776e61626c653a206e6577206f776e657220697320746865207a65726f206160008201527f6464726573730000000000000000000000000000000000000000000000000000602082015250565b7f5354414b455f4e46543a3a50524943455f4d5553545f42455f5448414e5f3000600082015250565b7f45434453413a20696e76616c6964207369676e6174757265202773272076616c60008201527f7565000000000000000000000000000000000000000000000000000000000000602082015250565b7f416464726573733a20696e73756666696369656e742062616c616e636520666f60008201527f722063616c6c0000000000000000000000000000000000000000000000000000602082015250565b7f5061757361626c653a2070617573656400000000000000000000000000000000600082015250565b7f5354414b455f4e46543a3a494e56414c49445f5349474e415455524500000000600082015250565b7f45434453413a20696e76616c6964207369676e6174757265202776272076616c60008201527f7565000000000000000000000000000000000000000000000000000000000000602082015250565b7f4f776e61626c653a2063616c6c6572206973206e6f7420746865206f776e6572600082015250565b7f416464726573733a2063616c6c20746f206e6f6e2d636f6e7472616374000000600082015250565b7f5361666545524332303a204552433230206f7065726174696f6e20646964206e60008201527f6f74207375636365656400000000000000000000000000000000000000000000602082015250565b7f5354414b455f4e46543a3a494e56414c49445f544f4b454e5f49440000000000600082015250565b7f5265656e7472616e637947756172643a207265656e7472616e742063616c6c00600082015250565b612e11816128e6565b8114612e1c57600080fd5b50565b612e28816128f8565b8114612e3357600080fd5b50565b612e3f8161292e565b8114612e4a57600080fd5b5056fea2646970667358221220b75fd381d14ccd9b822260f8dda65738a1b9607ad9a9c31db6bbc28eae0528d764736f6c63430008040033",
  "linkReferences": {},
  "deployedLinkReferences": {}
}